:020000040800F2
:10000000D82400207D170008A5060008A7060008D0
:10001000AB060008AF060008B306000800000000A9
:10002000000000000000000000000000B70600080B
:10003000B906000800000000BB060008BD06000865
:1000400093170008931700089317000893170008E8
:1000500093170008931700089317000893170008D8
:1000600093170008931700089317000893170008C8
:1000700093170008931700089317000893170008B8
:1000800093170008931700089317000893170008A8
:100090009317000893170008931700089317000898
:1000A0009317000893170008931700089317000888
:1000B0009317000809090008931700089317000810
:1000C0009317000893170008931700089317000868
:1000D00093170008F3160008950900089317000805
:1000E00093170008931700089317000800F002F810
:1000F00000F0B0F80AA090E8000C82448344AAF112
:100100000107DA4501D100F0A5F8AFF2090EBAE80F
:100110000F0013F0010F18BFFB1A43F0010318473B
:1001200000640000206400000A444FF0000C10F846
:10013000013B13F0070408BF10F8014B1D1108BF65
:1001400010F8015B641E05D010F8016B641E01F805
:10015000016BF9D113F0080F1EBF10F8014BAD1C55
:100160000C1B09D16D1E58BF01F801CBFAD505E073
:1001700014F8016B01F8016B6D1EF9D59142D6D3CD
:10018000704700000023002400250026103A28BFF5
:1001900078C1FBD8520728BF30C148BF0B607047F9
:1001A0006E2903F03E84702903F0A985662904F0C6
:1001B0006985652904F06685672904F063856129EE
:1001C000AFF3008003681B0A28BF41F08001692952
:1001D00003F06082642903F05D82752903F05A827E
:1001E0006F2903F03785782903F07585E92903F035
:1001F000D184E42903F0CE84F52903F0CB84EF29E0
:1002000003F03485F82903F074850368DB0928BFFF
:1002100041F08001632903F04084732903F0458491
:10022000E32903F0D387F32903F0D8870020704730
:100230001FB504F029F804000020002104F00CFD93
:10024000401C60600020002104F0F0FCE0601FBD55
:1002500010B510BD03F0EAFF1146FFF7E9FF00F00B
:100260005DF804F0C3F803B4FFF7F2FF03BC01F03C
:10027000E5F9000010B5C9B9642290FBF2F2303202
:10028000F44B1A700A2290FBF2F20A2392FBF3F469
:1002900003FB14223032EF4B5A700A2290FBF2F328
:1002A00002FB13023032EB4B9A7036E0012919D170
:1002B000642290FBF2F23032E64BDA700A2290FBB5
:1002C000F2F20A2392FBF3F403FB14223032E14BE7
:1002D0001A710A2290FBF2F302FB13023032DD4B5B
:1002E0005A711AE0022918D1642290FBF2F23032DE
:1002F000D84B9A710A2290FBF2F20A2392FBF3F494
:1003000003FB14223032D34BDA710A2290FBF2F352
:1003100002FB13023032CF4B1A7210BD1CB50026FF
:1003200000274FF4C8780024A24601F01DF94FF4CD
:10033000A06001F03FFA4FF4E13001F08EF94FF484
:10034000E13000F056FB00F0F1FB00F0FDF901F0A8
:1003500066F8002000F009FD002000F014FD00F018
:1003600044FD00F065FD1023BBA20021084600F00B
:10037000DCFE10200323324600210090242000F0F0
:1003800000FF1023B5A21946002000F0CEFE102079
:1003900003233A4601460090242000F0F2FE102389
:1003A000AFA22021002000F0C0FE1020032342460F
:1003B00020210090242000F0E4FE34B91023A9A2EB
:1003C00000214C2000F0B1FE10E0012C06D11023DA
:1003D000A4A219464C2000F0A8FE07E0022C05D18B
:1003E0001023A0A220214C2000F09FFE00F0FDFC75
:1003F0002FE10121084600F025FC8346012104205D
:1004000000F020FC05460121052000F01BFC0190B6
:100410000121062000F016FC8146594692A003F007
:1004200003F9294690A003F0FFF88FA0019903F08B
:10043000FBF849468EA003F0F7F8B9F57A7F06DAA3
:10044000641E4FF0010A601C58B9022409E040F60E
:10045000B830814505DD641C4FF0010A032C00D142
:100460000024B5F5166F39DD8CB9A5F5166040F29C
:10047000A46191FBF0F00A2191FBF0F006444FF0EB
:10048000010AB6F5967F15DD4FF4967612E0012C41
:1004900010D1A5F5166040F2A46191FBF0F00A219D
:1004A00091FBF0F007444FF0010AB7F5967F01DDAC
:1004B0004FF49677022C4AD1A5F5166040F2A4615C
:1004C00091FBF0F00A2191FBF0F080444FF0010A1B
:1004D00040F2C62080453ADD804638E0B5F5C86F69
:1004E00035DA7CB9C5F5C86040F2A46191FBF0F043
:1004F0000A2191FBF0F0361A4FF0010A002E12DAB1
:10050000002610E0012C0ED1C5F5C86040F2A461B0
:1005100091FBF0F00A2191FBF0F03F1A4FF0010A35
:10052000002F00DA0027022C11D1C5F5C86040F277
:10053000A46191FBF0F00A2191FBF0F0A8EB000818
:100540004FF0010AB8F1000F01DA4FF000088021E6
:10055000494801F090FA58B9322248A148A000F069
:10056000C5F83C494AA000F0AFFAC82001F039F8BC
:100570004FF48071404801F07EFA58B932223FA111
:100580003FA000F0B3F844A141A000F09DFAC820BC
:1005900001F027F8BAF1000F56D000F049FC102303
:1005A0002DA20021084600F0C0FD10200323324692
:1005B00000210090242000F0E4FD102327A219461A
:1005C000002000F0B2FD102003233A4601460090BF
:1005D000242000F0D6FD102321A22021002000F0CD
:1005E000A4FD10200323424620210090242000F087
:1005F000C8FD34B910231BA200214C2000F095FD4A
:1006000010E0012C06D1102316A219464C2000F050
:100610008CFD07E0022C05D1102312A220214C20D2
:1006200000F083FD00F0E1FB00213046FFF722FEE1
:1006300001213846FFF71EFE02214046FFF71AFE51
:10064000044913A002F0F0FF0A2000F0CAFF4FF0A7
:10065000000ACEE600000020500000004900000023
:1006600050574D006F6E000025640D0A0000000019
:1006700025640D0A0D0A0000000801404F4B0000E0
:1006800041542B43495053454E443D302C313000AA
:1006900025730D0A0000000030303030303030302B
:1006A00030300000704700BFFEE700BFFEE700BF2C
:1006B000FEE700BFFEE770477047704770470000D5
:1006C00070B5044600255C48008800F4004058B12D
:1006D000002059490988C1F30E01584A5054214657
:1006E000104603F0D7F80546284670BD2DE9F041C5
:1006F00006460D461446002700204F490880314623
:100700004FA000F0E1F9E5B1DCB113E00A2000F000
:1007100068FF4948008800F4004058B12846FFF7B8
:10072000CFFF20B1294648A002F07EFF06E000205E
:1007300041490880601E80B20400E7D100BF04B9BF
:1007400001273846BDE8F08110B500BF322241A133
:1007500041A0FFF7CBFF0028F8D100BF32223DA116
:1007600040A0FFF7C3FF0028F8D100BF322239A113
:1007700040A0FFF7BBFF0028F8D100BF322235A10F
:1007800045A0FFF7B3FF0028F8D100BF322231A106
:1007900048A0FFF7ABFF0028F8D100BF32222DA1FF
:1007A00047A0FFF7A3FF0028F8D110BD10B5012422
:1007B00048A000F089F94FF47A7000F012FF14227B
:1007C00024A145A0FFF792FF04461CB143A002F00C
:1007D0002BFF02E046A002F027FF204610BD7CB5AB
:1007E00005460C466E46002013490880294645A060
:1007F00000F06AF9ECB117E00A2000F0F2FE0E48B2
:10080000008800F4004078B100200B490988C1F34A
:100810000E010A4A5054164631460BA002F004FF5E
:1008200000200549088003E0601E80B20400E3D187
:1008300000BF30467CBD0000200000207C1400205A
:1008400025730D0A0000000061636B3A25730D0AE1
:10085000000000004F4B000041542B524553544FB1
:100860005245000041542B43574D4F44455F44458A
:10087000463D320041542B43575341505F44454657
:100880003D22666C79222C223030303030303030CE
:10089000222C31312C34000041542B43495041501B
:1008A0005F4445463D223139322E3136382E342EC2
:1008B0003122000041542B4349504D55583D3100E1
:1008C00041542B4349505345525645523D312C31EA
:1008D000393938002B2B2B00415400007175697495
:1008E0005F7472616E73206661696C6564210000DB
:1008F000717569745F7472616E732073756363657B
:10090000737321002573000010B501211F4802F008
:100910003CFC68B11E48008840F400401C49088037
:1009200001211A4802F042FC0021184802F064F943
:1009300010BD7FB505460C460121022001F0D1FA19
:10094000ADF80450ADF800400020ADF80600ADF859
:10095000020069460D4801F0F3FD012211460B48E3
:1009600002F065F90121094802F046F91D208DF8D1
:100970000C0000208DF80D0002208DF80E000120E3
:100980008DF80F0003A800F01AFF7FBD000400409F
:100990002000002010B540F225515D4801F0B8FC60
:1009A000F8B15B4801F034FCC4B25A48008800F446
:1009B0000040B0B957480088B0F5167F12DA002120
:1009C000554802F0ADFB5348008818B90121524840
:1009D00002F012F94F490888411C4E4A11804F49D4
:1009E0000C5405E04B48008840F400404949088019
:1009F00010BD10B586B0044601218C2001F064FAC8
:100A00000121480401F06DFA414801F0C1FA0420C7
:100A1000ADF8100003208DF8120018208DF8130097
:100A200004A93F4800F094FF0820ADF8100004200E
:100A30008DF8130004A93A4800F08AFF1020ADF8A1
:100A400010008DF8130004A9364800F081FF102132
:100A5000344801F02AF800940020ADF80400ADF805
:100A60000600ADF80800ADF80C000C20ADF80A0047
:100A70006946274801F0CFFA0121254801F057FBCC
:100A8000012240F22551224801F05DFB26208DF81D
:100A9000140002208DF8150003208DF816000120A7
:100AA0008DF8170005A800F08AFE41F61F4140F2BC
:100AB000E730FFF73EFF0020164908800021164866
:100AC00002F09AF806B010BD0FB438B505A8009032
:100AD0001548009A049902F095FD002000901248F4
:100AE00002F0EAFE85B200240DE000BF4021084874
:100AF00001F0F8FB0028F9D00B48015D044801F033
:100B000083FB601C84B2AC42EFDB38BC5DF814FBA5
:100B10000044004020000020000400407C1400201D
:100B200000080140001C0140D416002000B587B029
:100B300001214FF4017001F0C7F94FF4004001F0BA
:100B400027F90220ADF8040000208DF8070001A964
:100B5000484800F0FDFE1020ADF8040000208DF89C
:100B6000070001A9434800F0F3FE2020ADF804007F
:100B700000208DF8070001A93E4800F0E9FE402062
:100B8000ADF8040000208DF8070001A9394800F0F5
:100B9000DFFE8020ADF8040048208DF8070001A991
:100BA000344800F0D5FE4FF48070ADF804004820C2
:100BB0008DF8070001A92F4800F0CAFE2E4802F068
:100BC000F9FA002002908DF80C008DF80D004FF41A
:100BD000602004900020059001208DF8180002A9E3
:100BE000254802F00EFB0121234802F036FB224883
:100BF00002F055FB00BF204802F056FB0028FAD156
:100C00001D4802F05BFB00BF1B4802F05CFB0028A4
:100C1000FAD107B000BD10B50446072301222146D2
:100C2000154802F086FB0121134802F056FB00BF75
:100C30000221114802F0C2FC0028F9D00E4802F04F
:100C4000DFFB10BD2DE9F04107460C4600250026CC
:100C500008E03846FFF7DFFF0544052000F0C1FC3F
:100C6000701CC6B2A642F4DBB5FBF4F080B2BDE85E
:100C7000F0810000000801400024014010B54FF44D
:100C80000061F94800F011FF4FF48051F64800F080
:100C90000EFF4FF48051F44800F007FF10BD10B56F
:100CA0004FF40061F04800F000FF4FF40061EE489F
:100CB00000F0FDFE10BD70B50446002520E04FF4A5
:100CC0000061E94800F0F3FE04F0800028B14FF421
:100CD0008051E54800F0E9FE04E04FF48051E2481D
:100CE00000F0E5FE4FF40061DF4800F0DEFE4FF457
:100CF0000061DD4800F0DBFE6006040E681CC5B232
:100D0000082DDCDB70BD10B54FF48051D64800F0E3
:100D1000CCFE4FF40061D44800F0C7FE4FF4805180
:100D2000D14800F0C4FE4FF40061CF4800F0BFFE90
:100D300010BD70B505460C46FFF7E5FF7820FFF7BC
:100D4000BAFFFFF7ACFF1CB14020FFF7B4FF02E091
:100D50000020FFF7B0FFFFF7A2FF2846FFF7ABFF29
:100D6000FFF79DFFFFF78AFF70BD10B504461CB961
:100D70000021A620FFF7DDFF012C03D10021A720D1
:100D8000FFF7D7FF10BD10B504463CB90021C820BD
:100D9000FFF7CFFF0021A120FFF7CBFF012C07D1E8
:100DA0000021C020FFF7C5FF0021A020FFF7C1FFF1
:100DB00010BD10B500218D20FFF7BBFF00211420CE
:100DC000FFF7B7FF0021AF20FFF7B3FF10BD10B54D
:100DD00000218D20FFF7ADFF00211020FFF7A9FFB4
:100DE0000021AF20FFF7A5FF10BD70B500241CE067
:100DF00004F1B001C8B20021FFF79BFF00210846B3
:100E0000FFF797FF00211020FFF793FF002508E070
:100E1000964901EBC501085D0121FFF78AFF681CB7
:100E2000C5B2802DF4DB601CC4B2082CE0DB70BDC1
:100E300070B500240CE0002506E000208B4901EB92
:100E4000C5010855681CC5B2802DF6DB601CC4B214
:100E5000082CF0DBFFF7C9FF70BD70B50A46CE174E
:100E600001EB5676C6F3C703CE1701EB5676F610A4
:100E7000A1EBC606F4B20122A240D5B27B4A02EB36
:100E8000C002D25C2A43794E06EBC006F25470BD14
:100E900070B50B46CE1701EB5676C6F3C702CE17D8
:100EA00001EB5676F610A1EBC606F4B20123A3407F
:100EB000DDB26E4B03EBC0039B5CDB436B4E06EB7A
:100EC000C006B354694B03EBC0039B5C2B43674ED6
:100ED00006EBC006B354654B03EBC0039B5CDB43DE
:100EE000624E06EBC006B35470BD2DE9F84F0546BF
:100EF0000E4617469846002D0ADB802F08DC002E90
:100F000006DBB8F1400F03DCBD4201DC464501DDE4
:100F1000BDE8F88FBD420DD1002406E03019C1B202
:100F20002846FFF79AFF601CC4B2A8EB0600A04257
:100F3000F4DC30E046450CD1002406E02919C8B2A3
:100F40003146FFF78AFF601CC4B2781BA042F5DC73
:100F500021E0A8EB060000F0FF0A781B00F0FF0B71
:100F60000AEB8A00400090FBFBF000F0FF09002430
:100F70000EE004FB09F00A2190FBF1F03044C0B20E
:100F800029190090C8B20099FFF767FF601CC4B22E
:100F9000781BA042EDDC00BFBAE72DE9F04306461E
:100FA0000F469046002544463BE03A1BD1B27219E9
:100FB000D0B2FFF752FF3A1BD1B2721BD0B2FFF78B
:100FC0004CFF3A19D1B2721BD0B2FFF746FF3A1963
:100FD000D1B27219D0B2FFF740FF7A19D1B23219EB
:100FE000D0B2FFF73AFF7A1BD1B23219D0B2FFF775
:100FF00034FF7A1BD1B2321BD0B2FFF72EFF7A1921
:10100000D1B2321BD0B2FFF728FF6D1C05FB05F0F3
:1010100004FB040008FB1809B9F1000F01DD641E90
:101020006D1E6000604308FB08F18842BDDABDE830
:10103000F0832DE9FF4F81B080460E461C46009696
:101040002046E31704EB5373DB1021464FEAE47CA0
:1010500004EB5C7C4FEAEC0CA4EBCC0CBCF1000F75
:1010600006D04FF0010C05E0000801402C190020CB
:101070004FF0000C6344224604EBD27C4FEA6C0C28
:1010800003FB0CF303F0FF0B03982038C7B20025D5
:1010900047E00C2C07D107EB4700FE4901EB80002D
:1010A00010F805A014E0102C05D1FB4800EB071048
:1010B00010F805A00CE0182C07D107EBC700F74982
:1010C00001EB800010F805A002E005B0BDE8F08F4C
:1010D0004FF000091FE00AF0800020B13146404681
:1010E000FFF7BBFE03E031464046FFF7D1FE4FEA73
:1010F0004A604FEA106A701CC6B20098301AA042CB
:1011000005D1009E08F1010000F0FF0806E009F19A
:10111000010000F0FF09B9F1080FDCDB00BF681C1B
:10112000C5B25D45B5DB00BFCFE7F0B506460F465B
:1011300014461D4613E022782B4639463046FFF709
:1011400078FF284605EBD07106EB6101CEB2C5F100
:101150008000B04202DA0026B81CC7B2641C2078B6
:10116000202802DB20787E28E5DDF0BD10B50246A0
:10117000012000E050430B00A1F10104E1B2F9D1DC
:1011800010BD2DE9F04F06468A4691461F46099C40
:1011900000252CE0781B401EC1B20A20FFF7E6FFB5
:1011A000B9FBF0F00A21B0FBF1F201FB1208B8F133
:1011B000000F0CD1A34604EBDB71491001FB056164
:1011C000C8B2234630225146FFF733FF0DE0A34655
:1011D00004EBDB71491001FB0561C8B208F1300175
:1011E000CAB223465146FFF724FF681CC5B2BD4270
:1011F000D0DBBDE8F08F2DE9FF4F074688469146CA
:101200001C464FF0000B0297CDF804802046E117F2
:1012100004EB5171C1F3C701009160E009FB04F0D8
:10122000C11700EB51710BEBE101CEB20BF10100E4
:1012300000F0FF0B002550E0102C05D1984800EB82
:101240000610405D03901BE0182C07D106EBC6008A
:10125000944901EBC000405D039011E0202C05D1C2
:10126000914800EBC610405D039009E0402C05D189
:101270008E4800EB4620405D039001E0BDE8FF8F03
:101280004FF0000A17E0039800F0010020B141463A
:101290003846FFF7E2FD03E041463846FFF7F8FD28
:1012A00003984010039008F1010000F0FF080AF1D4
:1012B000010000F0FF0ABAF1080FE4DB781CC7B2A6
:1012C0000298381AA04204D1029F01980830C0B297
:1012D0000190DDF80480681CC5B2A542ACDB009823
:1012E000411EC9B20091002898D100BFC6E78046D0
:1012F00089460026002749E03FB9102332461821CD
:101300008020FFF778FF701CC6B2464522D14FF00F
:10131000000A1AE0002410E000250AE0644800EB0F
:10132000C400415D601E624A02EBC0004155681C6A
:10133000C5B2082DF2DB601CC4B2902CECDBFFF7C9
:1013400054FD0AF1010000F0FF0A4FEA0910504570
:10135000E0DC0026781CC7B2102F00D10027002443
:1013600010E000250AE0524800EBC400415D601E19
:101370004F4A02EBC0004155681CC5B2082DF2DB94
:10138000601CC4B2902CECDBFFF72FFDB4E770B506
:1013900004460D4605F1B001C8B20021FFF7C9FCB3
:1013A000102141EA14100021FFF7C3FC04F00F01E3
:1013B00041F001000021FFF7BCFC70BD2DE9F05F9A
:1013C00005460E4617469846DDF828B04FF000094E
:1013D000CA460024E11704EB5171C910A4EBC10106
:1013E00001B901E0601CC4B2344614E0214628462D
:1013F000FFF7CDFFAA460AE01BF809000121FFF71D
:1014000098FC09F101090AF1010000F0FF0ABA4550
:10141000F2DB601CC4B24445E8DBBDE8F09F08B5D0
:101420000121042000F050FD4FF4C050ADF8000041
:1014300010208DF8030003208DF8020069461D4836
:1014400000F086FA4FF4C0511A4800F02EFB6420D9
:1014500000F0C7F8C82000F0C4F80021AE20FFF764
:1014600068FC00210846FFF764FC00211020FFF70C
:1014700060FC00214020FFF75CFC00218120FFF789
:1014800058FC0021CF20FFF754FC0021A120FFF7DA
:1014900050FC11E0884C0008FC500008EC56000895
:1014A00022000020820100205A0200205A0400205D
:1014B0002C190020000801400021C820FFF739FC4A
:1014C0000021A620FFF735FC0021A820FFF731FC02
:1014D00000213F20FFF72DFC0021D320FFF729FC3E
:1014E00000210846FFF725FC0021D520FFF721FC4D
:1014F00000218020FFF71DFC0021D920FFF719FCF7
:101500000021F120FFF715FC0021DA20FFF711FC84
:1015100000211220FFF70DFC0021DB20FFF709FC62
:1015200000214020FFF705FC00212020FFF701FCEF
:1015300000210220FFF7FDFB00218D20FFF7F9FBC2
:1015400000211420FFF7F5FB0021A420FFF7F1FB99
:101550000021A620FFF7EDFB0021AF20FFF7E9FBFC
:10156000FFF766FC08BD000010B56FF0040000F046
:1015700070F92E4800682E49B0FBF1F02D49087033
:101580000846007800EB4001C1EBC0104FF6FF7138
:1015900001EAC0002849088010BD0146254A12789A
:1015A0004A434FF0E0235A6100229A611A461269B9
:1015B00042F001021A6100BF4FF0E022106900F012
:1015C00001021AB100F48032002AF5D04FF0E02277
:1015D000126922F001024FF0E0231A6100229A61A1
:1015E00070470146144A12884A434FF0E0235A617B
:1015F00000229A611A46126942F001021A6100BF84
:101600004FF0E022106900F001021AB100F48032BC
:10161000002AF5D04FF0E022126922F001024FF0CB
:10162000E0231A6100229A61704700000C0000203C
:1016300000127A005A1400205C140020014600BFFA
:10164000704700BF494A128802F04002002AF9D0D0
:10165000C2B2464B1B1D1A80704710B586B00446B7
:10166000012144F2040000F02FFC4FF40070ADF8AB
:10167000140003208DF8160018208DF8170005A916
:101680003B4800F065F94FF48060ADF81400042089
:101690008DF8170005A9364800F05AF925208DF875
:1016A000000003208DF801008DF8020001208DF864
:1016B0000300684600F083F801940020ADF80800AC
:1016C000ADF80A00ADF80C00ADF810000C20ADF834
:1016D0000E0001A9254800F09EFC012240F2255190
:1016E000224800F030FD0121204800F020FD06B026
:1016F00010BD10B540F225511C4800F009FE10B392
:101700001A4800F085FDC4B21A48008800F4004071
:10171000C8B91848008800F4804060B10A2C03D092
:1017200000201449088020E01248008840F400405E
:101730001049088019E00D2C06D10E48008840F4AD
:1017400080400C49088010E00A480088C0F30D0072
:1017500009490C5407480088401C0649088008467F
:101760000088C72801DD0020088010BD0038014036
:101770000008014064140020AC1D00200848004708
:10178000FEE7FEE7FEE7FEE7FEE7FEE7FEE7FEE731
:10179000FEE7FEE703480449044A054B7047000092
:1017A000ED000008D81E0020D8240020D8200020FA
:1017B000D820002031490143314A1160704770B58B
:1017C000002100230F22C47804B32D4C246804F4B4
:1017D000E064C4F5E064210AC1F10403CA4044781E
:1017E00004FA03F18478144021430901254C06785A
:1017F000A155047804F01F050124AC4005786D1153
:10180000AD0005F1E025C5F8004109E0047804F0D9
:101810001F050124AC401C4D0678761145F8264082
:1018200070BD1A4A0A400243154B1B1F1A607047CD
:1018300039B1134A121D12680243114B1B1D1A6065
:1018400006E00F4A121D126882430D4B1B1D1A60E1
:101850007047042808D14FF0E021096941F00401E4
:101860004FF0E022116107E04FF0E021096921F01B
:1018700004014FF0E0221161704700000000FA05FA
:101880000CED00E000E400E080E100E080FFFF1FDD
:1018900010B50446CC48844208D10121042000F050
:1018A0002DFB0021042000F029FB46E0C7488442BC
:1018B00008D10121082000F021FB0021082000F0C0
:1018C0001DFB3AE0C248844208D10121102000F0FB
:1018D00015FB0021102000F011FB2EE0BD488442D2
:1018E00008D10121202000F009FB0021202000F078
:1018F00005FB22E0B848844208D10121402000F0D5
:10190000FDFA0021402000F0F9FA16E0B3488442C5
:1019100008D10121802000F0F1FA0021802000F0A0
:10192000EDFA0AE0AE48844207D10121801500F0AB
:10193000E5FA0021A01500F0E1FA10BD10B5012173
:10194000084600F0DBFA0021012000F0D7FA10BDB4
:101950002DE9F04102460025002600200023002446
:10196000002791F803C00CF00F0591F803C00CF0AC
:10197000100CBCF1000F03D091F802C04CEA050531
:1019800091F800C0BCF1000F31D0146800202BE0AA
:101990004FF0010C0CFA00F3B1F800C00CEA03069A
:1019A0009E4220D183004FF00F0C0CFA03F7BC438A
:1019B00005FA03FC4CEA040491F803C0BCF1280FBB
:1019C00006D14FF0010C0CFA00FCC2F814C00AE07A
:1019D00091F803C0BCF1480F05D14FF0010C0CFA8F
:1019E00000FCC2F810C0401C0828D1D31460B1F824
:1019F00000C0BCF1FF0F34DD546800202EE000F180
:101A0000080C4FF0010808FA0CF3B1F800C00CEA1A
:101A100003069E4221D183004FF00F0C0CFA03F70E
:101A2000BC4305FA03FC4CEA040491F803C0BCF182
:101A3000280F05D100F1080C08FA0CF8C2F8148040
:101A400091F803C0BCF1480F07D100F1080C4FF02A
:101A5000010808FA0CF8C2F81080401C0828CED300
:101A60005460BDE8F0814FF6FF7101800221817062
:101A70000421C17070470246002093680B400BB1EF
:101A8000012000E0002070470146886880B270475E
:101A900002460020D3680B400BB1012000E000207B
:101AA00070470146C86880B2704701617047416164
:101AB00070470AB1016100E041617047C160704741
:101AC0004FF480320A438261816182618269826956
:101AD000704702460020434B18684FF68073184049
:101AE00040EA021008433F4B186070473E49C86106
:101AF0007047F0B50A46002300240021002500F0BD
:101B00000046B6F1004F02D1364EF16901E0354E84
:101B10007168C0F3034583B200F44016B6F5401F68
:101B200008D121F070612F4E766826F070662D4F37
:101B30007E6012E000F48016B6F5801F06D1032601
:101B400006FA05F4A14341F0706106E0460D360146
:101B500003FA06F6B14341F0706122B1460D360139
:101B600003FA06F6314300F00046B6F1004F02D109
:101B70001C4EF16101E01B4E7160F0BD30B50022DA
:101B80008B071C0F0F2303FA04F2164B08338C103B
:101B900053F824309343134C08348D1044F8253007
:101BA00023468C1053F824308C07240F00FA04F4D9
:101BB00023430C4C08348D1044F8253030BD0A49BD
:101BC000DC3108607047000000080140000C014053
:101BD000001001400014014000180140001C0140A9
:101BE000002001400000014000002042DF48006862
:101BF00040F00100DD49086008464068DC490840C3
:101C0000DA49486008460068DA490840D749086060
:101C10000846006820F4802008600846406820F4E8
:101C2000FE0048604FF41F0088607047CF49096884
:101C300021F48031CD4A11601146096821F48021D8
:101C40001160B0F5803F03D0B0F5802F0ED106E0D3
:101C5000C649096841F48031C44A116007E0C349AC
:101C6000096841F4A021C14A116000E000BF00BF33
:101C7000704710B501460022002300204A11012AB6
:101C800002D1BA4C236806E0022A02D1B74C236A7B
:101C900001E0B64C636A01F01F02012494401C402D
:101CA0000CB1012000E0002010BD38B500200090EC
:101CB0000024002500BF3120FFF7DBFF0546009818
:101CC000401C00900098B0F5A06F01D0002DF2D01C
:101CD0003120FFF7CEFF08B1012400E000242046A8
:101CE00038BD01460020A14A106820F0F80040EA03
:101CF000C10010607047A04908607047024600208C
:101D00009A4B586820F47C1042EA01031843974B21
:101D10005860704798490866704701460020934A0A
:101D2000506820F003000843506070478F484068B7
:101D300000F00C007047014600208C4A506820F0EB
:101D4000F00008435060704701460020874A506801
:101D500020F4E06008435060704701460020834A49
:101D6000506820F4605040EAC1005060704729B1CB
:101D70007E4A527A02437D4B5A7204E07B4A527A81
:101D800082437A4B5A7270477B49D831086070475A
:101D900001460020754A506820F4404008435060D6
:101DA00070470021714A20321170704A82F8201069
:101DB000012802D004280AD104E001216B4A203214
:101DC000117005E00521694A2032117000E000BF62
:101DD00000BF70476949086070476449096A014358
:101DE000624A11627047654944390860704730B5EE
:101DF00000210022002400235C4D6D6805F00C01D9
:101E000021B1042905D0082923D105E05C4D0560E6
:101E100022E05B4D05601FE0544D6D6805F47012C3
:101E2000524D6D6805F48034022505EB92421CB9D1
:101E3000544D554305600BE04C4D6D6805F400357D
:101E40001DB1504D5543056002E04D4D55430560B1
:101E500002E04B4D056000BF00BF444D6D6805F0CA
:101E6000F0010909484D6B5C0568DD4045603F4D58
:101E70006D6805F4E061090A434D6B5C4568DD401F
:101E800085603A4D6D6805F46051C90A3E4D6B5C42
:101E90004568DD40C560354D6D6805F44041890BEE
:101EA0003A4D6B5CC568B5FBF3F5056130BD29B1F2
:101EB0002E4A526902432D4B5A6104E02B4A526963
:101EC00082432A4B5A61704729B1284A92690243DA
:101ED000264B9A6104E0254A92698243234B9A611A
:101EE000704729B1214AD2690243204BDA6104E0EC
:101EF0001E4AD26982431D4BDA61704729B11B4AE1
:101F0000D2680243194BDA6004E0184AD26882436F
:101F1000164BDA60704729B1144A12690243134B19
:101F20001A6104E0114A12698243104B1A6170472A
:101F300012494039086070470F49C86470470B491F
:101F4000C87170470948406A40F08070074948628C
:101F5000704701460020054A92680A400AB10120F4
:101F600000E000207047014988727047001002406D
:101F70000000FFF8FFFFF6FE0000424280044242EC
:101F800000127A0000093D0066140020761400203B
:101F900010B50446FB48844209D101218803FFF7AC
:101FA000ADFF00214FF48040FFF7A8FF32E0F64874
:101FB000844209D101214804FFF7ADFF00214FF40D
:101FC0000030FFF7A8FF25E0F048844209D1012145
:101FD0008804FFF7A0FF00214FF48020FFF79BFF4C
:101FE00018E0EB48844209D10121C804FFF793FFB0
:101FF00000214FF40020FFF78EFF0BE0E5488442FC
:1020000008D101210805FFF786FF00214FF4801059
:10201000FFF781FF10BD2DE9F04786B005460E465B
:102020000024A24600BFA1460027B08900B100BF2E
:102030002F462C8A4CF6FF700440F08804432C8213
:10204000AC894EF6F3100440B08831890843718999
:1020500008430443AC81AC8A4FF6FF400440B0898A
:102060000443AC8201A8FFF7C2FEC648874202D1F2
:10207000DDF810A001E0DDF80CA0A88900F4004014
:1020800040B10AEBCA0000EB0A1031684900B0FB0E
:10209000F1F807E00AEBCA0000EB0A10316889008A
:1020A000B0FBF1F86420B8FBF0F0040120096421D2
:1020B00001FB1089A88900F4004040B1322000EBF8
:1020C000C900B0FBF1F000F00700044308E0322043
:1020D00000EB09106421B0FBF1F000F00F000443A5
:1020E0002C8106B0BDE8F0874FF416510160002145
:1020F0008180C18001810C21418100218181704753
:1021000010B502460020108A4FF2FF0318400B88DA
:102110004C8823438C882343CC8823431843108264
:1021200010BD0021018041808180C180704721B1B4
:10213000828942F40052828104E082894DF6FF7365
:102140001A4082817047F0B503460024002600251E
:10215000002040F66A17B94200D100BF1846C1F30B
:10216000421401F01F06012707FA06F5012C01D1E0
:102170000C3004E0022C01D1103000E014301AB110
:1021800007682F43076002E00768AF430760F0BDB0
:102190001AB1838A0B43838202E0838A8B43838252
:1021A0007047028A4FF6F0731A400282028A0A438D
:1021B0000282704782894FF2FF731A4082818289BE
:1021C0000A438281704721B1828942F002028281F2
:1021D00004E082894FF6FD731A4082817047028ABB
:1021E0004FF6DF731A400282028A0A430282704766
:1021F00021B1028A42F48042028204E0028A4BF654
:10220000FF731A4002827047C1F308028280704750
:1022100001468888C0F308007047818941F00101B8
:1022200081817047028BD2B20283028B42EA012283
:1022300002837047028B02F47F420283028B0A43BF
:102240000283704721B1828A42F02002828204E038
:10225000828A4FF6DF731A408282704721B1828AE8
:1022600042F01002828204E0828A4FF6EF731A4035
:102270008282704721B1828A42F00802828204E0A1
:10228000828A4FF6F7731A408282704721B18289A1
:1022900042F40042828103E08289C2F30E0282810D
:1022A000704721B1828A42F40062828204E0828A0D
:1022B0004FF2FF731A4082827047828A4FF6FB7397
:1022C0001A408282828A0A438282704721B1828ABE
:1022D00042F00202828204E0828A4FF6FD731A40C5
:1022E0008282704702460020B1F5007F00D100BF16
:1022F00013880B400BB1012000E00020704701F46F
:102300000072B2F5007F00D100BFCA43028070475F
:1023100070B50246002400230025002040F66A160E
:10232000B14200D100BFC1F3421501F01F030126E5
:1023300006FA03F3012D02D19689334006E0022DFF
:1023400002D1168A334001E0968A33400C120126EE
:1023500006FA04F41688344013B10CB1012000E0F1
:10236000002070BD10B50022002340F66A14A1427F
:1023700000D100BF0A1201249440A3B2DC430480C0
:1023800010BD0000003801400044004000480040FB
:10239000004C00400050004010B50446FE48844206
:1023A00008D10121C014FFF7A9FD0021E014FFF7B7
:1023B000A5FDC4E0B4F1804F08D101210846FFF724
:1023C000AAFD00210120FFF7A6FDB8E0F3488442F2
:1023D00008D101210220FFF79EFD00210220FFF716
:1023E0009AFDACE0EE48844208D101210420FFF7B9
:1023F00092FD00210420FFF78EFDA0E0E948844211
:1024000008D101210820FFF786FD00210820FFF7F1
:1024100082FD94E0E448844208D101211020FFF7B6
:102420007AFD00211020FFF776FD88E0DF48844226
:1024300008D101212020FFF76EFD00212020FFF7A9
:102440006AFD7CE0DA48844208D101214014FFF79C
:1024500055FD00216014FFF751FD70E0D54884421E
:1024600009D10121C804FFF749FD00214FF40020E4
:10247000FFF744FD63E0D048844209D101210805FB
:10248000FFF73CFD00214FF48010FFF737FD56E0C9
:10249000CA48844209D101214805FFF72FFD0021D8
:1024A0004FF40010FFF72AFD49E0C548844208D1E7
:1024B00001214020FFF72FFD00214020FFF72BFDD9
:1024C0003DE0C048844208D101218020FFF723FD70
:1024D00000218020FFF71FFD31E0BB48844208D176
:1024E00001218015FFF717FD0021A015FFF713FD4F
:1024F00025E0B648844209D101210804FFF7FEFC1B
:1025000000214FF48030FFF7F9FC18E0B048844216
:1025100009D101214804FFF7F1FC00214FF40030FC
:10252000FFF7ECFC0BE0AB48844208D101218804A2
:10253000FFF7E4FC00214FF48020FFF7DFFC10BD23
:1025400000220288944B98420ED0994B98420BD0AF
:10255000B0F1804F08D0914B984205D0904B9842F3
:1025600002D0904B984204D14FF68F731A404B889B
:102570001A438D4B984207D08C4B984204D04FF6AB
:10258000FF431A40CB881A4302808B8883850B88CF
:102590000385814B98420BD0854B984208D08B4BDA
:1025A000984205D08A4B984202D08A4B984201D17A
:1025B0000B7A038601238382704770B500240022C2
:1025C0000023058C4FF6FE7635400584028C838807
:1025D000048B4FF68F752C40B51E2C400D882C4374
:1025E000751E2A400D892A434D882A436A4DA84208
:1025F0000BD06F4DA84208D0744DA84205D0744D41
:10260000A84202D0734DA84213D14FF6F7752A4065
:102610004D892A434FF6FB752A408D882A434FF691
:10262000FF652B404FF6FF552B408D892B43CD89FD
:102630002B4383800483CD888586028470BD70B56A
:10264000002400220023058C4FF6EF7635400584E8
:10265000028C8388048B48F6FF752C404FF6FF45AB
:102660002C400D884FF6FF7606EA05252C434FF6E1
:10267000DF752A400D8906EA05152A434D8806EACA
:1026800005152A43444DA84202D0494DA8421DD108
:102690004FF67F752A404D894FF6FF7606EA0515FD
:1026A0002A434FF6BF752A408D8806EA05152A434E
:1026B0004FF6FF352B404FF2FF752B408D8906EA10
:1026C00085052B43CD8906EA85052B43838004834A
:1026D000CD880587028470BD70B5002400220023D8
:1026E000058C4FF6FF6635400584028C8388848B09
:1026F0004FF68F752C404FF6FC752C400D882C43FF
:102700004FF6FF552A400D894FF6FF7606EA05255C
:102710002A434D8806EA05252A431F4DA84202D0C8
:10272000234DA8421DD14FF2FF752A404D894FF627
:10273000FF7606EA05252A434FF6FF352A408D88A5
:1027400006EA05252A434EF6FF752B404DF6FF7528
:102750002B408D8906EA05152B43CD8906EA051520
:102760002B4383808483CD888587028470BD70B5B8
:10277000002200230024058C4EF6FF7635400584A8
:10278000038C8488828B48F6FF752A404FF6FF45FC
:102790002A400D8820E00000002C01400004004089
:1027A00000080040000C00400010004000140040F1
:1027B00000340140004C01400050014000540140F1
:1027C00000180040001C0040002000400040014074
:1027D00000440140004801404FF6FF7606EA052517
:1027E0002A434DF6FF752B400D8906EA05352B432C
:1027F0004D8806EA05352B43FA4DA84202D0FA4D22
:10280000A84208D14BF6FF752C408D894FF6FF7614
:1028100006EA85152C4384808283CD88A0F8405039
:10282000038470BD828B4FF2FF331A408283828B08
:102830004FF6FF7303EA01231A4382837047F0B512
:102840000C461546002200210026078C4EF6FF7C20
:1028500007EA0C070784828B018C4FF6FF7707EAA3
:10286000043640F6FF473A404FF6FF7707EA052760
:102870003A434FF6FF7707EA03373A43D94FB84256
:102880000ED0D94FB8420BD0B0F1804F08D0D74FFF
:10289000B84205D0D64FB84202D0D64FB84206D182
:1028A0004DF6FF77394046F48057394305E047F647
:1028B000FF57394044F48057394382830184F0BD87
:1028C000828B4FF6F3731A408283828B0A43828392
:1028D0007047F0B50C461546002200210026078CF3
:1028E0004FF6FF6C07EA0C070784828B018C4FF6CA
:1028F000FF7707EA04264FF60C773A404FF6FF774A
:1029000007EA03172F433A43B64FB8420ED0B64FEB
:10291000B8420BD0B0F1804F08D0B44FB84205D0C8
:10292000B34FB84202D0B34FB84206D14FF6FF576B
:10293000394046F48077394305E04FF2FF5739407C
:1029400044F48077394382830184F0BD028B4FF2D7
:10295000FF331A400283028B4FF6FF7303EA012311
:102960001A4302837047F0B50C4615460022002139
:102970000026078C4FF6EF7C07EA0C070784028BD2
:10298000018C4FF6FF7707EA041640F6FF473A40FE
:102990004FF6FF7707EA03373A434FF6FF7707EA28
:1029A00005273A438F4FB8420ED08F4FB8420BD015
:1029B000B0F1804F08D08D4FB84205D08C4FB8424F
:1029C00002D08C4FB84206D14FF6DF77394046F03F
:1029D0001007394305E04FF65F77394044F01007A0
:1029E000394302830184F0BD028B4FF6F3731A4022
:1029F0000283028B0A4302837047F0B50C461546EA
:102A000000220021068C4FF6FE773E400684028BA2
:102A1000018C4FF60C7632407E1C06EA03162E43DC
:102A20003243704EB0420ED06F4EB0420BD0B0F178
:102A3000804F08D06D4EB04205D06D4EB04202D0EE
:102A40006C4EB04206D14FF6FD76314044F001069F
:102A5000314305E04FF6F576314044F0010631434D
:102A600002830184F0BD70B505460C465D48854281
:102A70000ED05D4885420BD0B5F1804F08D05B4841
:102A8000854205D05A48854202D05A48854200D135
:102A900000E000BF208850B92389A28861882846B9
:102AA000FFF7ABFFE1882846FFF79EFF25E020886F
:102AB00004280AD12389A28861882846FFF753FF9A
:102AC000E1882846FFF742FF17E0208808280AD14E
:102AD0002389A28861882846FFF7FBFEE188284603
:102AE000FFF7EEFE09E02389A28861882846FFF7F8
:102AF000A6FEE1882846FFF795FE70BD2DE9F0415E
:102B000005460C4600260127608808B9022600E029
:102B10000026A088012801D1022700E00127208893
:102B2000A0B92389A28861882846FFF766FFE1885B
:102B30002846FFF759FF23893A4631462846FFF7D2
:102B400012FFE1882846FFF701FF13E02389A288DE
:102B500061882846FFF707FFE1882846FFF7F6FE61
:102B600023893A4631462846FFF747FFE188284641
:102B7000FFF73AFFBDE8F0810A884B881A438B883B
:102B80001A43CB881A430B891A434B891A438B8902
:102B90001A43A0F8442070474FF6FF71818000214E
:102BA0000180C18041800172704700210180418015
:102BB0008180C180018141818181C1817047002173
:102BC00001804180012181800021C1800181704705
:102BD0000021018041808180C1800181418181810A
:102BE00070470000002C0140003401400004004008
:102BF00000080040000C004021B1028842F00102B0
:102C0000028004E002884FF6FE731A40028070478B
:102C100031B1B0F8442042F40042A0F8442005E06D
:102C2000B0F84420C2F30E02A0F8442070471AB155
:102C300083890B43838102E083898B4383817047BF
:102C40008182704741EA0203A0F8483070471AB108
:102C500083890B43838102E083898B43838170479F
:102C600001894FF6F8721140018170470A46002130
:102C700001894FF68F73194011430181704730B5B8
:102C800004460D4629462046FFF7F0FF208940F014
:102C90000700208130BD2DE9F04104460D4616465F
:102CA0001F46602D06D13B46012231462046FFF7E4
:102CB0005AFE05E03B46012231462046FFF79DFEC5
:102CC00029462046FFF7D2FF208940F007002081E7
:102CD000BDE8F08130B50C4600210189C9B24FF63C
:102CE000FF7505EA0325154325432943018130BDBE
:102CF0002DE9F04105460E46174698460024434606
:102D00003A4631462846FFF7E5FF2C894FF6F87022
:102D1000044044F007044FF68F70044044F0700400
:102D20002C81BDE8F081F0B504460D4616461F46DD
:102D30003B46324629462046FFF7CCFF208940F427
:102D400080402081F0BD0185828270470A460021C3
:102D500001884FF68F731940114301807047F0B519
:102D60000C4615461E460021002200230189028BD5
:102D7000038C4FF6F877394021434FF6FC473A4031
:102D800040F201173A434FF6DD773B404FF6FF77AD
:102D900007EA06172F433B43018102830384F0BDFA
:102DA0000A460021018B4FF68F73194011430183AE
:102DB00070470A460021018B48F6FF7319404FF611
:102DC000FF7303EA02231943018370470A46002177
:102DD000818B4FF68F7319401143818370470A46E8
:102DE0000021818B48F6FF7319404FF6FF7303EA09
:102DF000022319438183704721B1028842F0800287
:102E0000028004E002884FF67F731A400280704708
:102E100021B1828842F00402828004E082884FF669
:102E2000FB731A408280704721B1828842F0080209
:102E3000828004E082884FF6F7731A4082807047E0
:102E400021B1828842F00102828004E082884FF63C
:102E5000FE731A40828070470A460021018B4FF6AC
:102E6000F77319401143018370470A460021018B13
:102E70004FF2FF7319404FF6FF7303EA0223194321
:102E8000018370470A460021818B4FF6F773194082
:102E90001143818370470A460021818B4FF2FF73F3
:102EA00019404FF6FF7303EA0223194381837047E9
:102EB0000A460021018B4FF6FB7319401143018331
:102EC00070470A460021018B4FF6FF3319404FF639
:102ED000FF7303EA02231943018370470A46002166
:102EE000818B4FF6FB7319401143818370470A466B
:102EF0000021818B4FF6FF3319404FF6FF7303EA31
:102F000002231943818370470A460021018B4FF643
:102F10007F7319401143018370470A460021018BDA
:102F2000C1F30E014FF6FF7303EA02231943018335
:102F300070470A460021818B4FF67F731940114379
:102F4000818370470A460021818BC1F30E014FF641
:102F5000FF7303EA02231943818370470A46002165
:102F6000018C4FF6FD7319401143018470470A46E6
:102F70000021018C4FF6F77319401143018470470B
:102F80000A460021018C4FF6DF7319404FF6FF739C
:102F900003EA02131943018470470A460021018C99
:102FA0004FF67F7319404FF6FF7303EA021319437C
:102FB000018470470A460021018C4FF6FF531940E7
:102FC0004FF6FF7303EA02231943018470470A4650
:102FD0000021018C4FF2FF7319404FF6FF7303EA93
:102FE00002231943018470470A460021018C4DF6E3
:102FF000FF7319404FF6FF7303EA0233194301844C
:10300000704730B5002301248C40A3B2048C9C434C
:103010000484048C02FA01F5ADB22C43048430BD63
:1030200030B5002304248C40A3B2048C9C43048458
:10303000048C02FA01F5ADB22C43048430BD70B5A6
:103040000346002000241846183001258D40ACB2FC
:103050001D8CA5431D8409B1082909D100EB61002D
:10306000056825F0700505600568154305600EE0EC
:103070000D1FC5F34E052844056825F4E04505609D
:1030800005684FF6FF7606EA02263543056070BDF7
:1030900021B1028842F00202028004E002884FF669
:1030A000FD731A400280704721B1028842F0040289
:1030B000028004E002884FF6FB731A4002807047DA
:1030C00021B1828842F08002828004E082884FF63B
:1030D0007F731A408280704702884FF6F7731A4058
:1030E000028002880A430280704782884FF68F73FD
:1030F0001A40828082880A438280704702894FF694
:10310000F8731A40028102890A43028170470289DA
:103110004FF67F731A40028102890A430281704789
:103120008184704781857047818670470187704729
:1031300081877047A0F84010704702884FF6FF4320
:103140001A40028002880A43028070470146888E36
:1031500070470146088F70470146888F70470146C7
:10316000B1F8400070470146888C70470146088DD1
:10317000704702460020138A0B400BB1012000E08B
:1031800000207047CA430282704730B502460020D3
:1031900000230024158A05EA0103958905EA010444
:1031A00013B10CB1012000E0002030BDCA430282FF
:1031B0007047000010B50446FA48844208D1012146
:1031C0004015FEF79BFE00216015FEF797FE17E005
:1031D000F548844208D101210015FEF78FFE002139
:1031E0002015FEF78BFE0BE0F048844208D1012148
:1031F000C803FEF783FE00214FF40040FEF77EFE79
:1032000010BD30B50246002000235068E84C204035
:103210000D790C6844EA0524204350609068E54C21
:103220002040D1E902542C434D7944EA450420431F
:103230009060D06A20F470000C7C641EE4B22343DA
:1032400040EA0350D06230BD00210160017141713C
:103250008160C16001210174704721B1826842F030
:103260000102826003E0826822F0010282607047FE
:1032700021B1826842F48072826003E0826822F4A5
:1032800080728260704710B50023CBB21AB14468D7
:103290001C43446002E044689C43446010BD816864
:1032A00041F0080181607047014600208A6802F001
:1032B00008020AB1012000E000207047816841F057
:1032C000040181607047014600208A6802F0040210
:1032D0000AB1012000E00020704721B1826842F469
:1032E000A002826003E0826822F4A002826070473C
:1032F000014600208A6802F480020AB1012000E041
:103300000020704710B50A4600210023416821F4CF
:103310006041531E41EA4331416010BD21B1426812
:1033200042F40062426003E0426822F400624260BC
:103330007047F0B504460D4600200021092D11DD2F
:10334000E068A5F10A0606EB4607072606FA07F12C
:103350008843A5F10A0606EB460603FA06F1084380
:10336000E0600CE0206905EB4507072606FA07F147
:10337000884305EB450603FA06F108432061072A56
:103380000FDA606B561E06EB86071F2606FA07F15A
:103390008843561E06EB860605FA06F1084360636D
:1033A00022E00D2A0FDA206BD61F06EB86071F26B8
:1033B00006FA07F18843D61F06EB860605FA06F1E2
:1033C0000843206310E0E06AA2F10D0606EB8607D1
:1033D0001F2606FA07F18843A2F10D0606EB8606C2
:1033E00005FA06F10843E062F0BD21B1826842F4BB
:1033F0008012826003E0826822F48012826070474B
:103400000146C86C80B2704766484C30006870470F
:1034100021B1426842F48062426003E0426822F4D3
:1034200080624260704721B1426842F4805242603B
:1034300003E0426822F48052426070470A4600214D
:10344000816821F4E04111438160704721B18268B5
:1034500042F40042826003E0826822F4004282600B
:10346000704721B1826842F40212826003E08268F0
:1034700022F4021282607047014600208A6802F43A
:1034800000120AB1012000E000207047F0B50446A8
:103490001546002000220026092911DDE068A1F16F
:1034A0000A0707EB470C072707FA0CF29043A1F134
:1034B0000A0707EB470703FA07F21043E0600CE046
:1034C000206901EB410C072707FA0CF2904301EB4E
:1034D000410703FA07F210432061A06BC0F30156C5
:1034E000EF1C06F1010CA7EB0C0707EB870C1F275D
:1034F00007FA0CF29043EF1C06F1010CA7EB0C0746
:1035000007EB870701FA07F21043A063F0BD10B57F
:103510000A4600210023816B21F44011531E41EA29
:103520000351816310BD08B5002300930090009BF8
:103530000B440093009B1A6008BD08B502460020AA
:103540000090009201F12800009B18440090009820
:10355000006880B208BD0A4600214168164B194038
:103560001143416070474162826270470A46002100
:10357000416821F01F0111434160704740B1094982
:103580000831096841F40001064A0832116007E079
:1035900004490831096821F40001024A0832116027
:1035A000704700000024014000280140003C014019
:1035B000FFFEF0FFFDF7F1FFFFFD3FFF0246002099
:1035C00013680B400BB1012000E000207047CA4394
:1035D0000260704770B502460020002300240B12E1
:1035E0005568CEB205EA060415681D4015B10CB148
:1035F000012000E0002070BD00220A12D3430360C6
:10360000704770471CB50C46064B7B4469460090DA
:10361000204600F020FA04460020694600F02EFA09
:1036200020461CBD6F0400000FB4044910B503AA66
:10363000029800F03FFA10BC5DF814FB6014002003
:1036400070B50C460546012A05D02878800600D5BD
:10365000EA69002302E0012305E05B1C934202D2E9
:10366000E05C0028F9D1A869E618C01AA861286AA8
:1036700018442862284600F042F904E0D5E9012107
:1036800014F8010B9047B442F8D3284600F04DF9E6
:1036900070BD00002DE9F041064600241068752930
:1036A000314616A510D000F051F9002802DA404248
:1036B00013A507E031688A0701D512A502E0490782
:1036C00004D511A5012401E000F049F900210A22E6
:1036D00006F1240709E0B0FBF2FCB0FBF2F302FBB9
:1036E0001C00303078541846491C0028F3D123467A
:1036F0002A463046BDE8F04100F03AB9000000002B
:103700002D0000002B000000200000002DE9F05FDC
:10371000894604464FF0000ADFF874B1FB44C0F854
:1037200020A02046E1688847002874D0252806D0CC
:10373000D4E901219047206A401C2062F1E700266D
:103740005F462046E16888472028054607DB312D83
:1037500005D2781910F8200C08B10643F1E7B0073C
:1037600001D526F00406C4F81CA00027C4F818A050
:103770002A2D09D0284601F052FA38B304EB870805
:10378000303DC8F8185019E059F8041B204604EBE6
:1037900087029161E1688847012F054618D1E069E9
:1037A000002820DA26F020061DE0D8F8180000EBEB
:1037B000800005EB40003038C8F818002046E1686A
:1037C0008847054601F02BFA0028EED1012F0AD0D8
:1037D0002E2D08D12046E16888477F1C0546022F20
:1037E00046F02006C4DBA069002803DA404246F018
:1037F0000106A061F00701D026F010066C2D0BD059
:10380000682D09D04C2D39D06A2D35D0742D35D086
:103810007A2D33D016E038E0E1682F4620468847FD
:10382000B842054609D16C2F26D04FF48060E1687C
:10383000064320468847054604E06C2F1AD04FF413
:10384000807006430DB3A5F14100192802D8203538
:1038500046F400664A462946204626604E46FCF756
:103860009FFC80B101280BD0F61D26F0070000F167
:10387000080956E74020E4E78020D8E70020D6E793
:1038800006F104094DE7284652E7206ABDE8F09F9B
:10389000282D000030B505460B462A4613F8014B8B
:1038A00012F8010B08B1A042F8D01CB1002802D0D8
:1038B0006D1CF1E7284630BD10B5431C02E010F83E
:1038C000011B71B18107FAD14FF0013202C88C1A85
:1038D0008C4314EAC211F9D0C01A0A0603D0C01EE4
:1038E00010BDC01A10BD0A0401D0801E10BD09020F
:1038F000FCD0401E10BD704770477047704770B5D0
:10390000044685690068C10601D5302600E02026FE
:10391000C00707D070BDD4E9012130469047206A26
:10392000401C20626D1EF6D570BD70B504468569D9
:103930000078C00707D170BDD4E90121202090474D
:10394000206A401C20626D1EF6D570BD09684A05CC
:1039500001D540B27047C905FCD500B2704709686F
:103960004A0501D5C0B27047C905FCD580B2704781
:103970002DE9F0470D4699469246044600F1240889
:103980000168880604D5E06921F01001216000E09B
:103990000120A84201DD471B00E00027A1697A1938
:1039A00002EB0900081AA0612078C00602D4204664
:1039B000FFF7A5FF002608E0D4E901211AF8060068
:1039C0009047206A401C761C20624E45F4DB20782C
:1039D000C0060AD52046FFF792FF06E0D4E9012190
:1039E00030209047206A401C2062381EA7F1010752
:1039F000F4DC07E0D4E9012118F805009047206ABB
:103A0000401C2062281EA5F10105F3DC2046FFF7CB
:103A10008CFF2078000602D50220BDE8F087012047
:103A2000FBE711680268006A530501D508700AE0D7
:103A3000D30501D5088006E0130603D5C217C1E9F6
:103A4000000200E0086001207047000001694A1C84
:103A500002610878704700B58FB0CDE901310021CF
:103A6000059105497944CDE9031011466846FFF7F1
:103A70004DFE0FB000BD0000E5FFFFFF0A6802F831
:103A8000010B0A60704710B5436913B1AFF30080B2
:103A900001E0FFF7D5FD012010BD127800F12401EF
:103AA0000A7000224A700122EDE711684FF0FF32E0
:103AB000E9E70000074B70B50D467B44FFF7CBFFED
:103AC0000446284600F08EFB10B14FF0FF3070BD69
:103AD000204670BD85DBFFFF2DE9FF5F15468A4656
:103AE0000446DFF8AC80F8440027D8E900103E46D1
:103AF000CDE9001010E03AF816106A4602A800F06E
:103B000075FB411C07D02178890603D5E269391875
:103B100091420DD80744761C2078800602D5E069D2
:103B2000B84205DDAE42E6DB3AF816000028E2D1E5
:103B3000A069C01BA0612046FFF7E1FED8E9001094
:103B4000CDE90010002017E03AF818106A4602A8E4
:103B500000F04CFBB0F1FF3F81460BD000250DF18A
:103B6000080B05E0D4E901211BF8050090476D1C06
:103B70004D45F7D308F10100B0428046E4DB206AEE
:103B8000384420622046FFF7D0FEBDE8FF9F0000CA
:103B9000722900002DE9F0418046D21D22F0070273
:103BA0000025D2E90002F52915A614D0011E72F1F4
:103BB000000106DA0023D0EB030063EB020211A63A
:103BC00008E0D8F800108B0701D50FA602E04907DE
:103BD00001D50EA601251146002408F1240704E0B2
:103BE00000F098F830323A55641C50EA0102F7D1DF
:103BF0002B46324621464046BDE8F041FFF7B8BEAD
:103C0000000000002D0000002B000000200000003C
:103C100030B4002100F1240408E002F00705D208C6
:103C2000303542EA4372DB086554491C52EA030509
:103C3000F3D10468002310A2250708D504F020045E
:103C40000C4304D0C46901230CA2641EC46130BCBF
:103C5000FFF78EBE10B5044621461068FFF77FFEC1
:103C600002462046BDE810400023D1E7D21D22F0D5
:103C70000701D1E90023CBE700000000300000007D
:103C8000F0B40D460188090502D5214C7C4402E0C0
:103C90001F4C7C440E34002100F1240608E002F0A1
:103CA0000F071209E75D42EA03721B097754491CAA
:103CB00052EA0307F3D102780023120704D5702DCE
:103CC00006D009B1022311342246F0BCFFF750BEE2
:103CD00001231034F8E770B504460D4621461068FC
:103CE000FFF73DFE024629462046BDE8704000230E
:103CF000C6E7D21D22F00703D3E90023C0E703681B
:103D0000126843F0200303600823C3610023B7E770
:103D1000D427000030B5B0F10A024FEA900E71F1DD
:103D200000034EEA817EB0EB0E0061EB91014FEA99
:103D3000101E4EEA017E10EB0E0041EB11114FEA0E
:103D4000102E4EEA016E10EB0E0041EB11214FEAEE
:103D5000104E4EEA014E10EB0E0041EB114140189F
:103D600041F100014FEAD00040EA41704FEAD10131
:103D700010EB80054FEA810444EA907444EB01049F
:103D80006D1944EB0404521BA3414FF0000348BFDC
:103D90000A3200D530BD401C41F1000130BD7047F2
:103DA0002DE9FF4F0C461E464FF0FF378BB0D2E98E
:103DB0000001DDF860800A908A46C1F30A5505B912
:103DC0003D46002108464FF00000BAF1000F00F414
:103DD000400005DA00EB80004FF4400101EA50009A
:103DE0004FEA9059B9F1010F00DDB9460A9850EA3F
:103DF0004A000ED044F61050A5F2FF3545432F146B
:103E0000B8F1000F1ED07542291E1EDDC9F1000257
:103E10001CE0B8F1010F4FF0000001D0302103E0A9
:103E2000F24305E02154401CB042FBDB3046002247
:103E3000002121540B99C1F80880C1E900200FB07E
:103E4000BDE8F08FBD1B6D1CDEE74A4600DA694213
:103E500006A800F05DFA06AB93E8070003AB83E821
:103E6000070050460A9900F00BFB8DE80700A0F50B
:103E700000501F3800900398002D09DD42F21F0109
:103E80004A46084403A90390684600F06AFD08E02A
:103E9000A0F500504A461F3803A90390684600F079
:103EA00074FD8DE807000004000C03D04FF0FF30D4
:103EB000410800E01046B8F1000F03D00022009244
:103EC00015461EE0751E05D4FFF724FF30326255FB
:103ED0006D1EF9D5B3460122084302D000227F1C93
:103EE00004E02078302801D100227F1E002A0997A3
:103EF00086D01DE0112D07DAFFF70CFF3032625536
:103F00006D1C50EA0102F5D1084302D00098C8B1F7
:103F10000EE00021681E05E0235C625C63542254BD
:103F2000401E491C8142F7DBAB46A81B401E09908E
:103F3000002004F80B000B98099AC0F80880C0E92B
:103F4000002B7CE711264FF0000859E72DE9F04FD0
:103F500088460446D21D22F0070191B0D1E9000144
:103F6000CDE90A0100F047FE02460B98C00F01D0D0
:103F70002D2007E02068810701D52B2002E02021B9
:103F800001EAC000032A099001D0072A05DB034695
:103F90004146204600F07CF90BE12078800601D5EF
:103FA000E06900E00620B8F1650F814606D0B8F15F
:103FB000660F18D0B8F1670F70D131E00020B9F169
:103FC000110F009001DB112301E009F101030AAA9E
:103FD00001A90CA8FFF7E4FEDDE90C70002609F149
:103FE0000105834647E001204B4600904FF0004713
:103FF0000AAA01A90CA8FFF7D3FEDDE90DB00C99C0
:104000005D46002610B909F101000D18B9EB050055
:1040100003D4C0F1FF3609F10105A5EB09002BE03F
:10402000B9F1010F01DA4FF001090020B9F1110FC8
:104030000090484601DD112300E003460AAA01A9C9
:104040000CA8FFF7ADFEDDE90C704D460026834657
:10405000207800070AD4AB4500DA5D4601A8012D9F
:1040600004DD411911F8011C302907D04F4502DA4F
:1040700017F1040F04DA012082460FE06D1EEEE70F
:10408000002F02DCED1B3E4403E0781CA84200DD5B
:104090007D1CB81B00F1010A4FF000472078000793
:1040A00003D4AA4501DB4FF0FF3A0021B7F1004FDE
:1040B0000DF143088DF8431024D002202B23002F4C
:1040C00001DA7F422D230A21021EA0F1010000DC4B
:1040D0005FB197FBF1FC97FBF1F201FB1C7C1746EB
:1040E0000CF1300C08F801CDEEE7A8F101000370E7
:1040F0002188090501D5452100E06521A0F10108CD
:1041000000F8011C09980FA9A1EB0807FF1D00B1D9
:104110000120411901EBEA70A1693844081A401ED8
:10412000A0612078C00602D42046FFF7E8FB09987A
:1041300028B1D4E901219047206A401C20622078F0
:10414000C00622D52046FFF7DAFB1EE0002E04DB76
:10415000B34502DD01A8805D00E03020D4E90121F3
:104160009047206A401C2062761CAAF101005FEA99
:10417000000A0AD100F088F8C0680168405CD4E900
:1041800001219047206A401C2062281EA5F10105EC
:10419000DCDC07E0D4E9012118F8010B9047206A24
:1041A000401C2062381EA7F10107F3DC2046FFF710
:1041B000BCFB032011B043E610B5436913B1AFF364
:1041C000008001E0FFF788FC012010BD128800F19B
:1041D000240182840022C2840122EDE711684FF09D
:1041E000FF32E9E7007B00F08000704770B51646AB
:1041F0000C46054600F040F8036893F801010128D9
:1042000006D0FF2C0FD8185D68B101202C7070BD4E
:10421000D3F807013246214603F207130344284628
:10422000BDE8704018474FF0FF3070BD754600F094
:10423000E3F8AE4605006946534620F00700854680
:1042400018B020B5FDF7A6FABDE820404FF00006F3
:104250004FF000074FF000084FF0000B21F007016E
:10426000AC46ACE8C009ACE8C009ACE8C009ACE8B1
:10427000C0098D467047000010B500F005F8001D1C
:1042800010BD00BFD509000000487047941E0020F3
:104290002DE9F0411F46044603260168072A01F470
:1042A000006004DB08B116A505E016A503E008B11F
:1042B00015A500E015A521F010002060A069C01E22
:1042C000A0610FB1401EA0612046FFF718FB4FB15F
:1042D000D4E9012138469047206A401C2062C01C66
:1042E000206206E0206AFAE7D4E9012115F8010B03
:1042F0009047761EF8D22046FFF717FBBDE8F08105
:104300004E414E006E616E00494E4600696E660079
:104310002DE9F047814616468AB0334878440DC8E7
:104320008DE80D0030487844801C03AC0DC884E84B
:104330000D0041F69B300844372190FBF1F290FBD1
:10434000F1F5A5F1800501FB12041B3C02D5644286
:10435000012000E00020DFF890A080460027FA440A
:10436000AAF1BE0A0DE0E00709D03246684607EB25
:1043700047010AEB810100F008FB8DE8070064109B
:104380007F1C002CEFD1184F7F44AC3F18E0E807AA
:1043900014D007EB04100DF1180A90E80E008AE81B
:1043A0000E00C068F04201D198190890324606A963
:1043B00003A800F0EAFA03AB83E807006D10641C61
:1043C000002DE4D132466946B8F1000F03A802D0AF
:1043D00000F0C7FA01E000F0D8FAC9E90001C9F815
:1043E00008200AB0BDE8F087E82100000446AFF3DA
:1043F00000802046FBF737FF00487047741E0020FE
:104400004FF0013C50F8042B51F8043B9A4221D163
:10441000A2EB0C03934313EACC1317D150F8042BEF
:1044200051F8043B9A4215D1A2EB0C03934313EAD3
:10443000CC130BD150F8042B51F8043B9A4209D10C
:10444000A2EB0C03934313EACC13DBD04FF0000034
:10445000704700BFD01A01BAB1FA81F101F018011A
:1044600022FA01F0CB40C1F12001DBB2C0B2C01A88
:104470002CFA01F3D11A914311EAC311E6D1704726
:104480005FEA400C08BF91F0000F4FEA8C234FEA1F
:10449000C12243EA51514FEA1C5018BF00F5F040C9
:1044A0004FEA300018BF41F000415FEA6C5C00F059
:1044B0002980BCF1FF3F08BF40F080407047130CDB
:1044C00006BF12044FF0100C4FF0000C130E04BF87
:1044D00012020CF1080C130F04BF12010CF1040CB2
:1044E000930F04BF92000CF1020CD30F04BF5200D3
:1044F0000CF1010C11464FF00002A0F11F00A0EBDF
:104500000C00704711F0004F08BF704731F00041B8
:104510003FF4D5AF0B0C06BF09044FF0100C4FF061
:10452000000C0B0E04BF09020CF1080C0B0F04BFAA
:1045300009010CF1040C8B0F04BF89000CF1020C73
:10454000CB0F04BF49000CF1010CCCF12003A0EB10
:104550000C0022FA03F302FA0CF241EA030100F123
:104560000100704720F07F4C80EA030023F07F4772
:10457000ACEB070303F57C5300F0004003F1FF03AD
:104580002DE980494FEA154B09B44FEA144325EA57
:104590000B4E24EA03480FF2042606EB13274908C2
:1045A0003E785FEA320203FB0667C7F5000707FBA8
:1045B00006F64FEA54374FEAD64606F1020607FBE5
:1045C000066CCCF1005C4FEA1C472CEA074C07FB59
:1045D00006F40CFB06F504EB15464FEA961634BFBD
:1045E00000204FF000404FEAD13706FB07FC4FEAAE
:1045F0001C4C0CFB0BF7D21B03FB0CF761EB070108
:104600000CFB0EF7B0EB074072EB17420CFB08F700
:1046100034BFA2EB0742B2EB074261EB17414FEA0E
:104620000C444FEA910706FB07FC4FEA1C4C0CFBBD
:104630000BF7B0EBC74072EB573203FB0CF734BFFC
:10464000A2EBC742B2EBC74261EB57310CFB0EF74E
:10465000B0EBC70072EB57720CFB08F734BFA2EB4C
:10466000C702B2EBC70261EB5771039F4FEA81614A
:1046700041EA921104EBCC044FEAD1374FEA82624F
:1046800006FB07FC42EA90124FEA80604FEA1C4C9E
:104690000CFB0BF7D21B03FB0CF761EB07010CFBC8
:1046A0000EF7B0EB074072EB17420CFB08F734BF74
:1046B000A2EB0742B2EB074261EB17414FEA8C5580
:1046C0004FEA910704EB9C2406FB07FC4FEA1C4CC5
:1046D0000CFB0BF7B0EBC74072EB573203FB0CF748
:1046E00034BFA2EBC742B2EBC74261EB57310CFBC0
:1046F0000EF7B0EBC70072EB57720CFB08F734BF34
:10470000A2EBC702B2EBC70261EB577115EB4C2568
:104710004FEA816141EA92114FEA82624FEAD13752
:1047200042EA901206FB07FC44F100044FEA806065
:104730004FEA1C4C0CFB0BF7D21B03FB0CF761EB95
:1047400007010CFB0EF7B0EB074072EB17420CFBB6
:1047500008F734BFA2EB0742B2EB074261EB174107
:1047600015EB1C154FEA813141EA92414FEA823242
:1047700042EA90424FEA80304FEA0C7644F100045E
:1047800048EA03434EEA0B484FF0000EB2EB080C28
:1047900071EB030724BF624639464EEB0E0E4FF015
:1047A000000B0018524149414BEB0B0BB2EB080CCC
:1047B00071EB03077BF1000B24BF624639464EEBD9
:1047C0000E0E4FF0000B0018524149414BEB0B0B02
:1047D000B2EB080C71EB03077BF1000B24BF6246C0
:1047E00039464EEB0E0E51EA020718BF46F001069D
:1047F00016EB0E7655F1000254F1000103D5BDE829
:104800008901BDE80088BDE88901BDE80048B61906
:10481000524141EB0101A3F10103704780807F7E8B
:104820007D7C7B7A79787776767574737271717026
:104830006F6E6E6D6C6C6B6A6A69686867666665D8
:104840006464636362616160605F5F5E5E5D5D5C66
:104850005C5B5B5A5A5959585857575656555555D7
:104860005454535352525251515050504F4F4F4E37
:104870004E4D4D4D4C4C4C4B4B4B4A4A4A49494985
:1048800048484847474747464646454545444444C7
:10489000444343434342424242414141002B26D4D8
:1048A000770021D01CB54FEA370703B44FF0100052
:1048B0004FF010014FF000000FBCBDE810400BF1AD
:1048C000010BBBF1010F08BF5FEA170722BF12F10E
:1048D000010211F101014FF0004143F1000300F02A
:1048E000004043EA00007047F9D35708DAE746EA88
:1048F000064613F1400F4FEA16461FDD13F1200F55
:10490000DFBF16430A46002120335B42C8D0C3F103
:10491000200746EA064602FA07F74FEA164646EA35
:104920000706C3F1200722FA03F201FA07F721FA7A
:1049300003F14FF0000342EA0702B1E746EA02063C
:1049400046EA06464FEA164646EA0106BCBF46EA74
:104950000646360C4FF000034FF000024FF0000106
:104960009EE72DE9C048934630B491E8380007C867
:1049700031EA400C48BF34EA430C03D5FFF7F2FD9F
:10498000FFF78CFFF0BCBDE800882DE9C0489346D6
:1049900030B491E8380007C810F0804F08BF13F01A
:1049A000804F03D100F005F8FFF778FFF0BCBDE8B9
:1049B000008820F07F4780EA030023F07F4C07EB5C
:1049C0000C03A3F57C5300F00040A3F1FE0392F02A
:1049D000000F00F0B38095F0000F00F077802DE914
:1049E00001494FEA11404FEA144621EA004800FB12
:1049F00006FC24EA064708FB06F607FB08F800FB5E
:104A000007F718EB06484CEB164C4FEA124B18EB25
:104A100007484FEA15464CEB174022EA0B4E0BFBBA
:104A200006FC25EA06470EFB06F607FB0EFE0BFB0F
:104A300007F71EEB064E4CEB164C4FF000061EEB34
:104A4000074E4CEB174B18EB0B0840F1000018EB2E
:104A50000E0B58EB000840F100008F1A4FF00001D8
:104A60003CBFC943661B14BFB5EB040C00213CBF1F
:104A7000C943F61B4FEA17444EEA8E0E27EA044557
:104A80004FEA1C4704FB07622CEA074C05FB07F7BB
:104A90000CFB05F604FB0CFC16EB074642EB174239
:104AA00016EB0C4642EB1C421BEB060658EB0202CF
:104AB000414146EA9E0601D5BDE80189B619524139
:104AC00041EB0101A3F10103BDE801894FEA14455F
:104AD0004FEA114724EA054621EA074C05FB07F493
:104AE00006FB07F70CFB06F105FB0CFC11EB07417D
:104AF00044EB17444FEA124711EB0C4144EB1C44C2
:104B000022EA074C05FB07F206FB07F70CFB06F64B
:104B100005FB0CFC16EB074642EB174216EB0C4666
:104B200042EB1C456A1854F1000148BF7047B619A2
:104B3000524141EB0101A3F10103704795F0000FD1
:104B400037D04FEA11424FEA144721EA024624EADD
:104B5000074C02FB07F106FB07F70CFB06F402FB10
:104B60000CFC14EB074441EB17414FEA154714EBDB
:104B70000C4441EB1C4125EA074C02FB07F506FB00
:104B800007F70CFB06F602FB0CFC16EB074645EBA1
:104B9000174516EB0C4645EB1C42121951F100016A
:104BA00048BF7047B619524141EB0101A3F101031F
:104BB00070474FEA14454FEA114724EA054621EAB7
:104BC000074C05FB07F106FB07F70CFB06F24FF05D
:104BD000000605FB0CFC12EB074241EB174112EB00
:104BE0000C4251EB1C4148BF7047921841EB010148
:104BF000A3F101037047490050EAC12018BF042007
:104C00004A0D18BF40F0010040F2FF72B2EB515F55
:104C100008BF40F00200012808BF05207047303867
:104C20000A2801D2012070470020704710B50029E2
:104C30000AD00878002807D005487844FFF7E0FB41
:104C4000002801D0002010BD0248784410BD0000AB
:104C500006190000FE18000010B500290AD00878D7
:104C6000002807D005487844FFF7CAFB002801D088
:104C7000002010BD0248784410BD0000F618000066
:104C8000EE180000FFF762B900000000000000000D
:104C900000000000000000003F4000000000000095
:104CA00000003000400030004000000009000BC050
:104CB0003D000BC03D00090018C024407FE02240A9
:104CC00031800000180024C01B000D80324001809C
:104CD00003801C4027401C800740004010006000FB
:104CE00000000000000000000000000000001F8025
:104CF000204040200000402020401F800000000095
:104D0000090006001F8006000900000004000400DE
:104D10003F8004000400000000100060000000005C
:104D2000000000000400040004000400040000006F
:104D3000000000400000000000000000002001C052
:104D400006003800400000001F8020402040204026
:104D50001F800000000010403FC000400000000025
:104D600018C02140224024401840000010802040FC
:104D7000244024401B80000002000D0011003FC0B1
:104D8000014000003C802440244024402380000057
:104D90001F80244024403440038000003000200065
:104DA00027C03800200000001B80244024402440FD
:104DB0001B8000001C0022C0224022401F800000F7
:104DC000000000000840000000000000000000009B
:104DD0000460000000000000000004000A00110050
:104DE0002080404009000900090009000900000076
:104DF00000004040208011000A000400180020003C
:104E000023402400180000001F8020402740294034
:104E10001F400000004007C039000F0001C00040E3
:104E200020403FC0244024401B8000001F802040C1
:104E3000204020403080000020403FC020402040E3
:104E40001F80000020403FC024402E4030C00000A2
:104E500020403FC024402E00300000000F00108092
:104E6000204022403380020020403FC00400040064
:104E70003FC02040204020403FC020402040000054
:104E80000060202020203FC02000200020403FC0A4
:104E900024400B0030C0204020403FC02040004054
:104EA000004000C03FC03C0003C03C003FC00000C9
:104EB00020403FC00C4023003FC020001F80204006
:104EC000204020401F80000020403FC0244024009C
:104ED000180000001F802140214020E01FA000009A
:104EE00020403FC02440260019C0004018C0244084
:104EF0002440224031800000300020403FC020404C
:104F00003000000020003F80004000403F80200033
:104F100020003E0001C0070038002000380007C014
:104F20003C0007C038000000204039C0060039C0EE
:104F3000204000002000384007C03840200000001A
:104F4000304021C02640384020C000000000000052
:104F50007FE0402040200000000070000C00038033
:104F6000004000000000402040207FE000000000E2
:104F70000000200040002000000000000010001091
:104F800000100010001000100000000040000000A1
:104F900000000000000002800540054003C0004002
:104FA00020003FC004400440038000000000038054
:104FB00004400440064000000000038004402440F8
:104FC0003FC0004000000380054005400340000052
:104FD000000004401FC0244024402000000002E0E4
:104FE000055005500650042020403FC004400400F6
:104FF00003C000400000044027C000400000000043
:1050000000100010041027E00000000020403FC006
:105010000140070004C00440204020403FC0004041
:105020000040000007C0040007C0040003C00000E7
:10503000044007C00440040003C000400000038097
:105040000440044003800000041007F004500440B2
:1050500003800000000003800440045007F00010AB
:10506000044007C0024004000400000000000640A5
:105070000540054004C00000000004001F800440FB
:1050800000400000040007800040044007C00040CA
:105090000400070004C0018006000400060001C0EF
:1050A000070001C006000000044006C0010006C061
:1050B000044000000410071004E001800600040012
:1050C0000000044005C0064004400000000000004D
:1050D00004007BE040200000000000000000FFF022
:1050E00000000000000040207BE004000000000001
:1050F0004000800040002000200040000000000030
:10510000000000000000000000000000000000009F
:1051100000001FCC000C0000000000000000080090
:10512000300060000800300060000000022003FC36
:105130001E20022003FC1E200220000000000E188A
:1051400011043FFF10840C78000000000F00108451
:105150000F3800C0077818840078000000780F84AA
:1051600010C411240E9800E40084000808006800B0
:1051700070000000000000000000000000000000BF
:10518000000007E018182004400200000000400260
:105190002004181807E00000000000000240024050
:1051A00001800FF00180024002400000008000807A
:1051B00000800FF800800080008000000001000DDA
:1051C000000E000000000000000000000000008051
:1051D0000080008000800080008000800000000CC3
:1051E000000C0000000000000000000000000006AD
:1051F000001800600180060018002000000007F081
:10520000080810041004080807F000000000080453
:1052100008041FFC000400040000000000000E0C45
:1052200010141024104411840E0C000000000C18FF
:1052300010041104110412880C700000000000E03A
:105240000320042408241FFC0024000000001F98F1
:10525000108411041104108810700000000007F081
:1052600008881104110418880070000000001C0058
:10527000100010FC13001C001000000000000E388D
:1052800011441084108411440E38000000000700FF
:10529000088C10441044088807F00000000000004B
:1052A0000000030C030C00000000000000000000E0
:1052B0000001010600000000000000000000008066
:1052C00001400220041008081004000002200220FF
:1052D0000220022002200220022000000000100410
:1052E00008080410022001400080000000000E00A9
:1052F0001200100C106C10800F00000003E00C185E
:1053000013E4142417C4082807D000000004003C4C
:1053100003C41C40074000E4001C000410041FFCF0
:105320001104110411040E880070000003E00C1831
:1053300010041004100410081C10000010041FFCBE
:10534000100410041004080807F0000010041FFCEB
:105350001104110417C410040818000010041FFCE5
:105360001104110017C010000800000003E00C1821
:105370001004100410441C780040000010041FFCAE
:1053800010840080008010841FFC100400001004B2
:1053900010041FFC100410040000000000030001B2
:1053A000100110011FFE10001000000010041FFC6F
:1053B000110403801464181C1004000010041FFC66
:1053C0001004000400040004000C000010041FFC82
:1053D0001F0000FC1F001FFC1004000010041FFC35
:1053E0000C04030000E010181FFC100007F0080870
:1053F000100410041004080807F0000010041FFC3B
:1054000010841080108010800F00000007F0081832
:1054100010241024101C080A07F2000010041FFCBE
:105420001104110011C011300E0C000400000E1CFC
:1054300011041084108410441C380000180010005F
:1054400010041FFC100410001800000010001FF8CA
:1054500010040004000410041FF8100010001E00C7
:1054600011E0001C007013801C0010001FC0103CD5
:1054700000E01F0000E0103C1FC000001004180CEA
:10548000163401C001C01634180C100410001C00A2
:10549000130400FC13041C00100000000804101C7E
:1054A0001064108413041C04101800000000000095
:1054B00000007FFE40024002400200000000300079
:1054C0000C0003800060001C00030000000040028C
:1054D000400240027FFE00000000000000000000CB
:1054E00020004000400040002000000000010001BA
:1054F0000001000100010001000100010000400066
:1055000040002000000000000000000000000098A3
:10551000012401440144014400FC000410001FFC6C
:105520000088010401040088007000000000007081
:1055300000880104010401040088000000000070DC
:1055400000880104010411081FFC0004000000F899
:10555000014401440144014400C80000000001046A
:1055600001040FFC1104110411001800000000D602
:1055700001290129012901C90106000010041FFCAD
:10558000008401000100010400FC0004000001048B
:10559000190419FC000400040000000000000003CE
:1055A00000010101190119FE0000000010041FFC98
:1055B0000024004001B4010C0104000000001004AC
:1055C00010041FFC0004000400000000010401FCA2
:1055D0000104010001FC0104010000FC010401FCC4
:1055E000008401000100010400FC0004000000F838
:1055F000010401040104010400F80000010101FF9D
:1056000000850104010400880070000000000070A3
:10561000008801040104010501FF000101040104E7
:1056200001FC00840104010001800000000000CCA6
:10563000012401240124012401980000000001003C
:10564000010007F80104010400000000010001F856
:10565000000400040004010801FC000401000180B2
:105660000170000C001001600180010001F0010CCC
:10567000003001C00030010C01F001000000010405
:10568000018C00740170018C010400000101018192
:105690000171000E0018016001800100000001840A
:1056A000010C013401440184010C000000000000E1
:1056B0000000000001003EFC40024002000000002B
:1056C00000000000FFFF000000000000000040029A
:1056D00040023EFC010000000000000000006000ED
:1056E00080008000400040002000200000000000FA
:1056F00000000000000000000000000000000000AA
:105700000000000000000000000000000000000099
:105710000000000000000000000000000000000F7A
:1057200080380FFE380F80380000000000000000B5
:105730000000000000000000000001000006000062
:105740000C00003800003100000600000C0000389A
:1057500000003000000000000000000061800067D1
:10576000F807F9800061800061800061800061803D
:105770000067F807F9800061800000000000000069
:10578000000001C0E003E0F00630080418081FFF25
:10579000FE040E080787F00381E00000000000000F
:1057A00001F000060C00040408060C7001F9C000AA
:1057B0000E00003BE000EC18070808040C1800037A
:1057C000E00000000001E00007F003F818041C08E6
:1057D00004170807E1D003C0E00023B0003C080034
:1057E000200800001000000000000001000031004F
:1057F000003200001C00000000000000000000005B
:105800000000000000000000000000000000000098
:105810000000000000000000000000007F0001FF09
:10582000C00780F00C0018100004200002000000E7
:105830000000002000021000040C00180780F00196
:10584000FFC0007F0000000000000000000000001A
:10585000000000000000000042000066000066003A
:10586000003C0000180003FFC0001800003C0000CE
:10587000660000660000420000000000080000080A
:105880000000080000080000080001FFC000080038
:1058900000080000080000080000080000000000E8
:1058A000000100003100003200001C000000000078
:1058B00000000000000000000000000000000000E8
:1058C00000000000080000080000080000080000B8
:1058D0000800000800000800000800000800000898
:1058E0000000000000000000000000003800003848
:1058F0000000380000000000000000000000000070
:105900000000000000000000000000000006000091
:105910001C000070000180000E0000380000C00074
:105920000700001C00003000000000000000000024
:105930007F8001FFE0038070060018040008040067
:105940000806001803807001FFE0007F800000005F
:105950000000000000000100080100080100080329
:10596000FFF807FFF800000800000800000800002A
:105970000000000000000001C03802C05804009878
:10598000040118040218040418061C1803F818016E
:10599000E0F800000000000000000001C0E003C0CB
:1059A000F004000804080804080806180803F4189E
:1059B00001E7F00001E0000000000000000000002E
:1059C0000300000D000011000061000081080301C8
:1059D0000807FFF80FFFF8000108000108000000A9
:1059E0000000000000E007FCD006080806100806CA
:1059F0001008061008061838060FF00607C0000049
:105A000000000000000000003F8001FFE003843040
:105A100002081804100804100804100807181003DE
:105A20000FF00007C000000000000000000003C0ED
:105A3000000700000600000600F80607F806180038
:105A400006E0000700000600000000000000000162
:105A5000E1E003F7F0063410041808041808040CF9
:105A600008040C0806161803F3F001C1E00000005A
:105A700000000000F80003FC3003063804020804AC
:105A800002080402080404100308F001FFC0007FAC
:105A90000000000000000000000000000000000006
:105AA00000000000703800703800703800000000FE
:105AB00000000000000000000000000000000000E6
:105AC0000000000000000000301A00301C00000040
:105AD00000000000000000000000000000000000C6
