:020000040800F2
:10000000180D0020E9480008190500081B05000824
:100010001F05000823050008270500080000000050
:100020000000000000000000000000002B05000898
:100030002D050008000000002F050008310500080C
:100040000349000803490008034900080349000860
:100050000349000803490008034900080349000850
:100060000349000803490008034900080349000840
:100070000349000803490008034900080349000830
:100080000349000803490008034900080349000820
:100090000349000803490008034900080349000810
:1000A0000349000803490008034900080349000800
:1000B000910900080F0C00080349000803490008D3
:1000C00003490008034900080349000803490008E0
:1000D000034900085F4800081D0A0008034900089A
:1000E00003490008034900080349000803490008C0
:1000F00003490008034900080349000803490008B0
:10010000034900080349000803490008034900089F
:10011000034900080349000803490008034900088F
:10012000034900080349000803490008034900087F
:1001300000F002F800F090F80AA090E8000C824469
:100140008344AAF10107DA4501D100F085F8AFF246
:10015000090EBAE80F0013F0010F18BFFB1A43F0A5
:100160000103184778A2000098A20000103A24BFAB
:1001700078C878C1FAD8520724BF30C830C144BF0C
:1001800004680C607047000000230024002500264E
:10019000103A28BF78C1FBD8520728BF30C148BFEA
:1001A0000B6070476E2906F0A883702906F013854E
:1001B000662909F06A81652909F06781672909F0D4
:1001C00064816129AFF3008003681B0A28BF41F0F6
:1001D0008001692906F01481642906F011817529CE
:1001E00006F00E816F2906F0A184782906F0DF84DD
:1001F000E92906F03B84E42906F03884F52906F065
:100200003584EF2906F09E84F82906F0DE84036821
:10021000DB0928BF41F08001632906F0AA83732916
:1002200006F0AF83E32906F06387F32906F06887B9
:10023000002070471FB506F0E5FF040000200021F4
:1002400008F05CF8401C60600020002108F040F8D5
:10025000E0601FBD10B510BD06F0A6FF1146FFF708
:10026000E9FF00F013F807F07FF803B4FFF7F2FF9F
:1002700003BC04F099FA000040F2C621884201DD77
:10028000084602E00A2800DA0A20704788B040F2E7
:10029000CF2500274FF000084FF0000A4FF0000B69
:1002A0000020079006900120059000200490039004
:1002B00004F010FA4FF4A06004F036FB4FF4E13084
:1002C00004F081FA4FF4E13000F0D8FB00F066FA58
:1002D00003F07CFF00F0F1FE00F003FF63212846ED
:1002E00000F0A0FC2846FFF7C7FF80B2014601904E
:1002F000784805F0D3FF2846FFF7BEFF80B20146DD
:100300000190744805F0CCFF2846FFF7B5FF80B296
:10031000014601906F4805F0C5FF2846FFF7ACFF86
:1003200080B2014601906B4805F0BEFF4FF47A7031
:1003300004F00DFA002068490880C9E005980128FA
:100340007DD100F032FF02900299086808F08EFE1D
:1003500081460299486808F089FE064609FB0AF0C2
:100360000499A9EB0102079902FB0100642190FBAB
:10037000F1F706FB0BF00399721A069902FB0100D4
:10038000642190FBF1F8CDF810900396E91BA1EBE6
:100390000800FFF771FF80B2014601904D4805F05B
:1003A0007DFFE91B01EB0800FFF766FF80B2014605
:1003B0000190484805F074FFE91901EB0800FFF7C8
:1003C0005BFF80B201460190424805F06BFFE919DE
:1003D000A1EB0800FFF750FF80B2014601903D48B5
:1003E00005F062FF3C48008800F4004000286CD013
:1003F000002039490988C1F30E01384A5054144687
:10040000214637A005F0C6FFA079A0F1300137A042
:1004100005F0C0FFE079A0F1300137A005F0BAFF88
:10042000207AA0F1300137A005F0B4FFA079303870
:1004300064214843E179303901EB810100E02EE08D
:1004400000EB4101207A3038084440F2CF210D1AE8
:1004500029462FA005F09EFFE078303864214843FC
:100460002179303901EB810100EB410160793038AD
:100470000844079020783038642148436178303947
:1004800001EB810100EB4101A078303801EB000A5B
:10049000D3460798069000200F49088015E005987C
:1004A00098B940F2CF210B4805F0F8FE40F2CF2179
:1004B000084805F0F5FE40F2CF21064805F0F2FEAF
:1004C00040F2CF21034805F0EFFE052004F03FF98C
:1004D00034E70000000400401400002098000020D1
:1004E00061636B3A25730D0A0000000061636B3194
:1004F0003A25640D0A00000061636B323A25640DF1
:100500000A00000061636B333A25640D0A000000A5
:1005100025640D0A00000000704700BFFEE700BF21
:10052000FEE700BFFEE700BFFEE770477047704779
:10053000704700000CB50020019000906C480068E6
:1005400040F480306A49086000BF6948006800F4E0
:10055000003000900198401C0190009818B9019853
:10056000B0F5A06FF1D16248006800F4003010B11E
:100570000120009001E0002000900098012843D164
:100580005C48006840F010005A490860084600685E
:1005900020F0030008600846006840F00200086090
:1005A00053484068524948600846406848600846D9
:1005B000406840F4806048600846406820F47C1041
:1005C00048600846406840F4E81048600846006803
:1005D00040F08070086000BF4548006800F000707F
:1005E0000028F9D04248406820F0030040494860A4
:1005F0000846406840F00200486000BF3C48406840
:1006000000F00C000828F9D10CBD10B5FFF792FFDF
:1006100010BD10B53648006840F00100344908604C
:100620000846406834490840314948600846006837
:10063000324908402E4908600846006820F48020AE
:1006400008600846406820F4FE0048604FF41F0030
:100650008860FFF7DAFF4FF000602949086010BD9D
:1006600010B5002100200022214B5B6803F00C0133
:1006700021B1042906D0082928D107E0214B224CBA
:10068000236027E01F4B204C236023E0184B5B685E
:1006900003F47010164B5B6803F48032022303EB03
:1006A000904022B9194B4343174C23600DE0104B87
:1006B0005B6803F4003323B1144B4343124C2360B3
:1006C00003E0104B4343104C236003E00D4B0E4CF2
:1006D000236000BF00BF064B5B68C3F303130C4CE1
:1006E000E15C094B1B68CB40074C236010BD000048
:1006F00000100240002002400000FFF8FFFFF6FE5D
:1007000008ED00E000127A000000002000093D0022
:100710000400002070B5044600256148008800F4FC
:10072000004058B100205E490988C1F30E015D4ABE
:1007300050542146104605F063FF0546284670BD1B
:100740002DE9F04106460D46144600270020544985
:100750000880314654A000F0FDF9E5B1DCB113E0AA
:100760000A2003F0F4FF4E48008800F4004058B11E
:100770002846FFF7CFFF20B129464DA005F00AFE1D
:1007800006E0002046490880601E80B20400E7D1E0
:1007900000BF04B901273846BDE8F08110B5322208
:1007A00046A147A0FFF7CCFF142248A149A0FFF7BC
:1007B000C7FF4FF47A7003F0CAFF4FF47A7003F06A
:1007C000C6FF4FF47A7003F0C2FF4FF47A7003F063
:1007D000BEFF00BF4FF4167240A143A0FFF7B0FF69
:1007E0000028F7D1142235A146A0FFF7A9FF00BFCA
:1007F000C82247A148A0FFF7A3FF0028F8D1C822CC
:100800002EA14FA0FFF79CFF32222CA150A0FFF792
:1008100097FF10BD10B5012450A000F09BF94FF4D4
:100820007A7003F094FF142224A14DA0FFF788FFF3
:1008300004461CB14BA005F0ADFD02E04EA005F052
:10084000A9FD204610BD7CB505460C466E4600202D
:100850001349088029464DA000F07CF9ECB117E05F
:100860000A2003F074FF0E48008800F4004078B1BD
:1008700000200B490988C1F30E010A4A505416465C
:1008800031460BA005F086FD00200549088003E0F5
:10089000601E80B20400E3D100BF30467CBD000082
:1008A000140000209800002025730D0A00000000AD
:1008B00061636B3A25730D0A000000004F4B000086
:1008C00041542B43574D4F44453D3100726561649F
:1008D0007900000041542B525354000057494649B7
:1008E00020474F542049500041542B43574A415010
:1008F0003D22666C79222C2230303030303030305E
:100900002200000041542B4349504D55583D3000C2
:10091000434F4E4E4543540041542B43495053548A
:100920004152543D22544350222C223139322E312F
:1009300036382E342E31222C31393938000000005F
:1009400041542B4349504D4F44453D310000000078
:1009500041542B43495053454E4400002B2B2B0050
:1009600041540000717569745F7472616E73206622
:1009700061696C6564210000717569745F747261EE
:100980006E732073756363657373210025730000B4
:1009900010B50121880705F0B2FC70B11E4800882F
:1009A00040F400401C4908800121880705F0B8FC8C
:1009B00000214FF0804005F0D9F910BD7FB5054604
:1009C0000C460121084604F046FBADF80450ADF892
:1009D00000400020ADF80600ADF8020069464FF077
:1009E000804004F067FE01221146900705F0D9F916
:1009F0000121880705F0BAF91C208DF80C000020B1
:100A00008DF80D0002208DF80E0001208DF80F00EA
:100A100003A803F08EFF7FBD1400002010B540F244
:100A200025515E4804F02EFD00B35C4804F0AAFC9A
:100A3000C4B25B48008800F40040B8B95848008848
:100A4000B0F5167F13DA00214FF0804005F022FC4C
:100A50005348008818B90121880705F087F95049E3
:100A60000888411C4E4A11804E490C5405E04C4800
:100A7000008840F400404A49088010BD10B586B097
:100A8000044601218C2004F0D9FA0121480404F025
:100A9000E2FA424804F036FB0420ADF810000320CF
:100AA0008DF8120018208DF8130004A93E4804F0B8
:100AB00009F80820ADF8100004208DF8130004A9EF
:100AC000394803F0FFFF1020ADF810008DF8130037
:100AD00004A9364803F0F6FF1021344804F09FF8CB
:100AE00000940020ADF80400ADF80600ADF8080051
:100AF000ADF80C000C20ADF80A006946274804F058
:100B000044FB0121254804F0CCFB012240F2255191
:100B1000224804F0D2FB26208DF8140002208DF824
:100B2000150003208DF8160001208DF8170005A888
:100B300003F0FFFE41F61F4140F2E730FFF73EFFB2
:100B400000201749088000214FF0804005F00EF981
:100B500006B010BD0FB438B505A800901448009A2F
:100B6000049905F005FC00200090114805F086FD71
:100B700085B200240DE000BF4021084804F06CFC61
:100B80000028F9D00A48015D044804F0F7FB601C16
:100B900084B2AC42EFDB38BC5DF814FB004400408B
:100BA000140000209800002000080140001C0140B3
:100BB000F00200207FB505460C460121022004F01A
:100BC0004AFAADF80850ADF804400020ADF80A002C
:100BD000ADF8060001A9514804F06CFD0122114650
:100BE0004E4805F0DEF81D208DF8000000208DF83D
:100BF000010003208DF8020001208DF803006846F3
:100C000003F097FE0121454805F0B0F87FBD10B50F
:100C10000121424805F073FB18B101213F4805F05E
:100C20007FFB10BD30B589B005460C46012102207E
:100C300004F011FA01210D2004F000FA0220ADF8B1
:100C4000200018208DF8230003208DF8220008A929
:100C5000334803F037FF0120ADF8200018208DF84D
:100C6000230003208DF8220008A92D4803F02AFF55
:100C70004020ADF8200018208DF8230003208DF8C7
:100C8000220008A9274803F01DFF8020ADF82000AE
:100C900018208DF8230003208DF8220008A9214890
:100CA00003F010FFADF81850ADF814400020ADF877
:100CB0001A00ADF8160005A9184804F0FBFC7020D6
:100CC000ADF804000120ADF806000020ADF80C00DE
:100CD00001A9124804F02BFD01A9104804F069FD98
:100CE00001A90E4804F0B2FD01A90C4804F0F9FD79
:100CF00008210A4805F06AF90821084805F06FF94B
:100D00000821064805F078F90821044805F07DF926
:100D10000121024805F02AF809B030BD0004004066
:100D2000000C014000080140014691F90020002A12
:100D300001DD00201EE091F90020002A01DA0420E4
:100D400018E091F90120002A01DD012012E091F95B
:100D50000120002A01DA05200CE091F90220002A86
:100D600001DD022006E091F90220002A01DA0620C6
:100D700000E00720704770B505462846FFF7D4FF0E
:100D80000446E81CFFF7D0FF44EAC00084B2A81D67
:100D9000FFF7CAFF44EA801084B2204670BD70B5E8
:100DA00088B002A905A802F0E7F80446072C3FD155
:100DB00001A801F043FB059808F094F90646019953
:100DC00008F0F0F9054608F051F90590069808F08A
:100DD00089F90646019908F0E5F9054608F046F953
:100DE0000690079808F07EF90646019908F0DAF9AE
:100DF000054608F03BF9079005A802F0CAFB6846D3
:100E000001F039FBBDF80010029848430290BDF88C
:100E10000010039848430390BDF80010049848431D
:100E2000049002A802F048FCFEA005F0B3FA00BF4F
:100E300008B070BD2DE9F04304460D46DDE90767B3
:100E40000021012041E0DFF800C43CF81080A0F14F
:100E5000010CDFF8F49329F81C8009F1160C3CF81A
:100E60001090A0F1010CDFF8E08308F1160828F8D3
:100E70001C9008F1160C3CF81090A0F1010C08F140
:100E8000160828F81C9008F1160C3CF81090A0F1F8
:100E9000010C08F1160828F81C9008F1160C3CF813
:100EA0001090A0F1010C08F1160828F81C9008F128
:100EB000160C3CF81090A0F1010C08F1160828F867
:100EC0001C9000F1010C0CF0FF000A28BBDBDFF8DE
:100ED00078C3ACF81240ACF82850ACF83E20ACF81F
:100EE0005430ACF86A60ACF880700021002008E053
:100EF000DFF854C33CF910C0614400F1010C0CF060
:100F0000FF000A28F4DB4FF00A0C91FBFCFC0FFAFF
:100F10008CFCDFF83483A8F814C0002100200AE01C
:100F2000DFF824C30CF1160C3CF910C0614400F149
:100F3000010C0CF0FF000A28F2DB4FF00A0C91FBC9
:100F4000FCFC0FFA8CF8DFF800C3ACF82A80002113
:100F500000200AE0DFF8F0C20CF12C0C3CF910C0C4
:100F6000614400F1010C0CF0FF000A28F2DB4FF0A5
:100F70000A0C91FBFCFC0FFA8CF8DFF8CCC2ACF841
:100F80004080002100200AE0DFF8BCC20CF1420CD6
:100F90003CF910C0614400F1010C0CF0FF000A287C
:100FA000F2DB4FF00A0C91FBFCFC0FFA8CF8DFF837
:100FB00098C2ACF85680002100200AE0DFF888C211
:100FC0000CF1580C3CF910C0614400F1010C0CF01C
:100FD000FF000A28F2DB4FF00A0C91FBFCFC0FFA31
:100FE0008CF8DFF864C2ACF86C80002100200AE0C5
:100FF000DFF854C20CF16E0C3CF910C0614400F1F2
:10100000010C0CF0FF000A28F2DB4FF00A0C91FBF8
:10101000FCFC0FFA8CF8DFF830C2ACF88280BDE837
:10102000F08338B50446032302226B21D0200094BC
:1010300003F0FBFA38BD38B50446022304221B2115
:10104000D020009403F0F1FA38BD38B504460223ED
:1010500004221C21D020009403F0E7FA38BD10B51B
:101060000446234606226B21D02003F013FB10BD5B
:1010700010B5764B01227521D02003F066FA734833
:10108000007810BD10B5FFF7F3FF682801D10120EB
:1010900010BD0020FCE710B50446234605226A2156
:1010A000D02003F0F7FA10BD10B504462346012204
:1010B0003721D02003F0EEFA10BD10B50220FFF763
:1010C000B0FF0320FFF7B7FF0020FFF7BEFF0020AF
:1010D000FFF7C5FF0020FFF7DEFF0020FFF7E4FF6A
:1010E00010BD38B5002000906B46012275216820A4
:1010F00003F0CDF956A005F04DF99DF800006828E1
:101100000ED000BF5B48006800F4E0605A49084315
:10111000001D58490860BFF3408F00BF00BFFEE7C5
:1011200056A005F037F900F096FE00283CD1782053
:1011300000F0F9FA10B946A005F02CF9782000F07B
:10114000D9FC10B94FA005F025F9C82000F0B3FD77
:1011500010B956A005F01EF902F080F910B95DA093
:1011600005F018F96848FFF706FE044602F080F91A
:1011700010B966A005F00EF940F2731002F0B9FD47
:1011800010B96CA005F006F9C82002F02BFB10B9CD
:1011900072A005F0FFF8FFF702FE012001F0A7FEA4
:1011A00010B977A005F0F6F838BD2DE9F04F91B0F1
:1011B00000BF0FA87B4910AB07AACDE900107A4900
:1011C0007A4802F0F5FE0028F3D17648008800F452
:1011D0008070002824D0079807F084FF04464FF061
:1011E0009D4107F04DFE72490860089807F07AFFAC
:1011F00004464FF09D4107F043FE6E490860099890
:1012000007F070FF04464FF09D4107F039FE6A4930
:1012100008600A9807F066FF04464FF09D41CDE054
:10122000B3E1000073657474696E6720626961736D
:101230002073756363657366756C6C79202E2E2E32
:101240002E2E2E0D0A000000560500204805002015
:101250006D70755F7365745F73656E736F72206315
:101260006F6D706C657465202E2E2E2E2E2E0D0A3D
:10127000000000000CED00E00000FA0568657265F2
:101280000D0A00006D70755F636F6E666967757239
:10129000655F6669666F20636F6D706C657465204D
:1012A0002E2E2E2E2E2E0D0A000000006D70755F62
:1012B0007365745F73616D706C655F7261746520D6
:1012C000636F6D706C657465202E2E2E2E2E2E0D84
:1012D0000A000000646D705F6C6F61645F6D6F7415
:1012E000696F6E5F6472697665725F6669726D7749
:1012F00061726520636F6D706C657465202E2E2E93
:101300002E2E2E0D0A0000003C000020646D705F40
:101310007365745F6F7269656E746174696F6E2056
:10132000636F6D706C657465202E2E2E2E2E2E0D23
:101330000A000000646D705F656E61626C655F66D7
:1013400065617475726520636F6D706C657465207E
:101350002E2E2E2E2E2E0D0A00000000646D705FC2
:101360007365745F6669666F5F7261746520636F31
:101370006D706C657465202E2E2E2E2E2E0D0A009B
:101380006D70755F7365745F646D705F73746174A5
:101390006520636F6D706C657465202E2E2E2E2E69
:1013A0002E0D0A00240000201E000020180000203E
:1013B0002C000020300000203400002007F060FDE9
:1013C00074490860744801684FF0804007F0EAFEF5
:1013D000019071480168019807F0E4FE82466F4869
:1013E00001684FF0404007F0DDFE01906B48016856
:1013F000019807F0D7FE8346514607F0D1FF81469A
:101400004FF07E5107F0CEFC044607F09FFCCDE97B
:101410000401634801684FF0804007F0C3FE834633
:101420005E480168584607F0BDFE81465A4801688B
:101430004FF0804007F0B6FE834656480168584694
:1014400007F0B0FE8246494607F0ACFC044607F0C0
:101450007DFCCDE90201DDE9042306F053FE0746D9
:101460004FF066324F4B07F097F9054607F064F9E5
:10147000069007F037FE0B90484801684548006821
:1014800007F090FE0590444801684548006807F061
:1014900089FE0490059907F083FF83464FF0804151
:1014A00007F080FE069007F051FC064606F0E2FBCE
:1014B00080464FF066323B4B07F06EF9044607F06A
:1014C0003BF9824607F00EFE0C90334801684FF05E
:1014D000804007F067FE01902F480168019807F0EF
:1014E00061FE82462B4801684FF0404007F05AFEEB
:1014F000019028480168019807F054FE8346514640
:1015000007F04EFF81464FF07E5107F04BFC04463A
:1015100007F01CFCCDE902011F4801684FF0804034
:1015200007F040FE83461D480168584607F03AFE22
:1015300081461B4801684FF0804007F033FE834628
:1015400014480168584607F02DFE8246494607F0C8
:1015500029FC044607F0FAFB0746DDE9022306F002
:10156000D1FD05464FF066320E4B07F015F9CDE977
:10157000040107F0E1F8069007F0B4FD0D900A4968
:10158000B1F9040007F0AEFD0E900BA811B0BDE854
:10159000F08F0000380000203400002030000020D0
:1015A0002C00002066A64C401E00002038B50446E2
:1015B000FB4890F82400C0B114B10220009001E073
:1015C00000200090F64A1268D17BF54A52681078E4
:1015D0006B46012202F0F9FE10B14FF0FF3038BD2A
:1015E0009DF80010EE48417423E0ED48807A10B970
:1015F0004FF0FF30F3E724B1E948407C08B1002008
:10160000EDE714B10120009001E000200090E44AD1
:101610001268D17BE24A526810786B46012202F0D0
:10162000D4FE10B14FF0FF30D9E79DF80010DC4830
:1016300041740020D3E738B5002419E0D848006889
:10164000C07AA04204D0D6480068407DA04200D1B4
:101650000CE0D349496808786B460122214602F024
:1016600016FF10B14FF0FF3038BD00BF601CC4B290
:10167000CB4840680079A042E0DC0020F4E770B578
:1016800004460D46C6480068C07AA04204D0C4484B
:101690000068407DA04202D14FF0FF3070BDC048CD
:1016A00040680079A04202DC4FF0FF30F6E7BC4909
:1016B000496808782B460122214602F0E8FEEDE752
:1016C00038B50446B64890F82300A04201D1002066
:1016D00038BD14B13020009001E000200090B048E7
:1016E000807C20B19DF8000040F002000090AC48E2
:1016F00090F8220020B19DF8000040F0800000909A
:10170000A74A1268117DA64A526810786B460122DA
:1017100002F05BFE10B14FF0FF30D9E7A04880F82F
:1017200023400020D4E738B5044604F0700010B11F
:101730000120009005E014B10020009001E040205D
:101740000090974A1268917C954A526810786B46CF
:10175000012202F03AFE20B1002191488172481E18
:1017600038BD9DF8000020F040018D480173002035
:10177000009004F0400020B99DF8000040F0040003
:10178000009004F0200020B99DF8000040F0020015
:10179000009004F0100020B99DF8000040F0010016
:1017A000009004F0080020B99DF8000040F03800D7
:1017B00000907B4A1268D17C794A526810786B4657
:1017C000012202F002FE20B1002175488172481EFC
:1017D000C6E724B1082C02D00020FFF771FF704843
:1017E000847200210175322002F0B1FF0020B7E7BA
:1017F00038B504466A48807CA04201D1002038BD3B
:10180000002C46D0664A12681179654A52681078F1
:101810006B46012202F03BFE10B14FF0FF30EEE7C5
:101820009DF8000020F0200000905D4A12681179B8
:101830005B4A526810786B46012202F0C6FD10B177
:101840004FF0FF30DBE7032002F081FF0220009021
:10185000534890F8220020B19DF8000040F080002D
:1018600000904F4890F8230020B19DF8000040F010
:10187000300000904A4A1268117D494A5268107837
:101880006B46012202F0A1FD002851D04FF0FF303D
:10189000B5E7434A12681179414A526810786B469D
:1018A000012202F0F4FD10B14FF0FF30A7E73C48F1
:1018B000807A00F0010028B19DF8000040F020007F
:1018C000009004E09DF8000020F020000090344AD1
:1018D00012681179324A526810786B46012202F080
:1018E00074FD10B14FF0FF3089E7032002F02FFFA5
:1018F0002B4890F8220010B18020009001E00020D9
:101900000090274890F8230020B19DF8000040F097
:1019100030000090224A1268117D214A52681078E6
:101920006B46012202F051FD10B14FF0FF3066E727
:101930001B488474002062E708B51948807A10B902
:101940004FF0FF3008BD00200090154A1268D17B8F
:10195000134A526810786B46012202F036FD10B12E
:101960004FF0FF30EEE70E4A126851790C4A526888
:1019700010786B46012202F028FD10B14FF0FF30C5
:10198000E0E7074A12681179054A526810786B46F9
:10199000012202F01AFD28B14FF0FF30D2E700001B
:1019A0004C000020F74890F82400002850D00C206C
:1019B0000090F44A12681179F24A526810786B4626
:1019C000012202F002FD10B14FF0FF30BAE7C02053
:1019D0000090EC48807A00F0010020B19DF80000F2
:1019E00040F020000090E74A12681179E54A5268F9
:1019F00010786B46012202F0E8FC10B14FF0FF3086
:101A0000A0E7E048407C10B10220009001E00020F7
:101A10000090DC4A1268D17BDA4A526810786B4633
:101A2000012202F0D2FC10B14FF0FF308AE7002013
:101A30000090D44A12685179D24A526810786B46A5
:101A4000012202F0C2FC002852D04FF0FF3079E7AB
:101A500004200090CB4A12681179CA4A5268107863
:101A60006B46012202F0B1FC10B14FF0FF3069E784
:101A7000C448807C20B9C348807A00F0010010B9C6
:101A80004020009001E060200090BE4A1268117969
:101A9000BC4A526810786B46012202F096FC10B1E5
:101AA0004FF0FF304EE7B748407C10B10120009066
:101AB00001E000200090B34A1268D17BB14A52681D
:101AC00010786B46012202F080FC10B14FF0FF301D
:101AD00038E7AC4A12685179AA4A52681078A94B83
:101AE0001033012202F071FC10B14FF0FF3029E7F2
:101AF000002027E770B50446002624F00104A14821
:101B000090F8240008B1002070BD9E48807A10B97A
:101B10004FF0FF30F8E79B48057C807A20409949D8
:101B200008740846007CA04202D04FF0FF3600E067
:101B3000002614B99348007D18B10120FFF736FD47
:101B400002E00020FFF732FD3CB1FFF7F5FE20B1C7
:101B50008C4805744FF0FF30D6E73046D4E738B5EF
:101B600004468848807A10B94FF0FF3038BDBC2C4D
:101B700002DB0120009015E0622C02DB02200090C5
:101B800010E02A2C02DB032000900BE0142C02DB77
:101B90000420009006E00A2C02DB0520009001E002
:101BA000062000907748C07A9DF80010884201D145
:101BB0000020DBE7734A12689178724A5268107805
:101BC0006B46012202F001FC10B14FF0FF30CDE76F
:101BD0009DF800106B48C1720020C7E738B5044675
:101BE000282C02DD4FF0FF3038BDDCB90020FFF7B4
:101BF00067FD00208DF8000007208DF80100614A84
:101C00001268917C5F4A526810786B46022202F09B
:101C1000DCFB10B14FF0FF30E6E7002159480175B9
:101C20000020E1E70120FFF74BFD20208DF80000A8
:101C3000012C06D100208DF801000520FFF78FFF51
:101C400017E0052C06DC01208DF801000520FFF7C8
:101C500086FF0EE0142C06DC02208DF801000A201D
:101C6000FFF77DFF05E003208DF801001420FFF74A
:101C700076FF9DF80100072101EB8010C0B28DF8BE
:101C80000100404A1268917C3E4A526810786B46C7
:101C9000022202F09AFB10B14FF0FF30A4E70821B6
:101CA0003848817200210173012101750020FFF77E
:101CB00021FF002098E738B504463248807A10B9F1
:101CC0004FF0FF3038BD2F4890F8240010B14FF08E
:101CD000FF30F7E72B48007D50B134B1282C04DCED
:101CE000E0B2FFF77BFF0020ECE70020FFF776FF74
:101CF000042C01DA042404E0B4F57A7F01DD4FF40A
:101D00007A744FF47A7090FBF4F0401EC0B20090E9
:101D10001C4A126851781B4A526810786B4601229F
:101D200002F053FB10B14FF0FF30CBE79DF80000FD
:101D3000401C4FF47A7191FBF0F081B21148C181DF
:101D40000146C9894810FFF70AFF0020BAE738B5F5
:101D500004460C48807A10B94FF0FF3038BD022C91
:101D600006D0042C07D0082C08D0102C0FD10BE083
:101D7000002000900EE0082000900BE01020009062
:101D800008E000004C0000201820009002E04FF016
:101D9000FF30E3E700BFF948407A9DF80010B0EB50
:101DA000E10F01D10020D9E7F44A1268D179F34A52
:101DB000526810786B46012202F007FB10B14FF019
:101DC000FF30CBE79DF80000C110EC4841720020C5
:101DD000C4E738B50446E948807A10B94FF0FF30BF
:101DE00038BDFA2C09D0B4F5FA7F09D0B4F57A7F62
:101DF00009D0B4F5FA6F0CD108E0002000900BE098
:101E00000820009008E01020009005E018200090C5
:101E100002E04FF0FF30E3E700BFD848007A9DF8BA
:101E20000010B0EBE10F01D10020D9E7D34A1268CE
:101E30009179D24A526810786B46012202F0C5FAB5
:101E400010B14FF0FF30CBE79DF80000C010CB4938
:101E500008720020C4E71CB580208DF80000C74A36
:101E60001268917CC54A526810786B46012202F0D4
:101E7000ACFA10B14FF0FF301CBD642002F067FCDB
:101E800000208DF80000BD4A1268917CBB4A526860
:101E900010786B46012202F098FA10B14FF0FF3033
:101EA000EAE7B64A1268917DB44A526810786B46E8
:101EB000062202F0ECFA10B14FF0FF30DCE79DF89B
:101EC0000500C007400F9DF8031001F0010140EA32
:101ED00041009DF8011001F0010140EA010494B1B4
:101EE000012C03D10121A548C17431E0022C03D19A
:101EF0000021A248C1742BE02146A1A004F04AFAB7
:101F00004FF0FF30B8E79D4A1268D1789B4A52687B
:101F100010786B46012202F0BAFA10B14FF0FF3090
:101F2000AAE79DF8000000F00F042CB99E4804F0C9
:101F300031FA4FF0FF309FE7042C06D19BA004F04C
:101F400029FA01218D48C17402E000218B48C17437
:101F5000FF218A488172FF2088490872FF21874843
:101F60004172C1724FF6FF71C181FF21017481740A
:101F70000121017380F82210002180F8231041759F
:101F800001751630016041608160163880F82410B8
:101F900080F82510C1844FF4FA60FFF71AFF10B1E2
:101FA0004FF0FF3068E70220FFF7D1FE10B14FF08D
:101FB000FF3061E72A20FFF7D2FD10B14FF0FF306C
:101FC0005AE73220FFF777FE10B14FF0FF3053E7AA
:101FD0000020FFF78FFD10B14FF0FF304CE70020DD
:101FE000FFF706FC10B14FF0FF3045E70020FFF788
:101FF0009AFB002040E770477CB504460D465F48D9
:10200000807A00F0700010B94FF0FF307CBD5B4A61
:102010001268117B594A526810786B46062202F00A
:1020200036FA10B14FF0FF30F0E79DF801009DF84F
:10203000001040EA012000B220809DF803009DF8C6
:10204000021040EA012000B260809DF805009DF872
:10205000041040EA012000B2A08015B12846FFF725
:10206000CAFF0020D2E77CB504460D464348807A7B
:1020700000F0080010B94FF0FF307CBD3F4A1268F5
:10208000517B3E4A526810786B46062202F0FFF9F7
:1020900010B14FF0FF30F0E79DF801009DF80010FF
:1020A00040EA012000B220809DF803009DF8021054
:1020B00040EA012000B260809DF805009DF8041000
:1020C00040EA012000B2A08015B12846FFF793FF37
:1020D0000020D2E72DE9FE4F05460C462748807ABE
:1020E00018B94FF0FF30BDE8FE8F244A1268917B8B
:1020F000224A5268107802AB022202F0C8F910B1ED
:102100004FF0FF30EFE79DF809009DF8081040EA16
:10211000012006B214B12046FFF76DFF1749496848
:10212000C88806F0F7FF154901904968B1F9080021
:1021300006F0D8FF8346304606F0D4FF594600909B
:1021400007F02EF98246019906F09AFE81461F4952
:1021500006F028FE80464FF08F4107F023F807462F
:1021600006F084FF28600020BDE710B588B0044663
:102170001CB94FF0FF3008B010BD29E04C00002022
:10218000556E737570706F7274656420736F6674CA
:10219000776172652070726F647563742072657602
:1021A0002025642E0A0000008CA3000848616C669C
:1021B0002073656E736974697669747920706172D1
:1021C0007420666F756E642E0D0A000000000C42CC
:1021D000206830B9606820B9A06810B9002008B044
:1021E00010BDFA494968087806AB0322114602F08F
:1021F0004EF910B14FF0FF30F1E79DF818000821BB
:1022000001EB201000F00F00ADF800009DF8190060
:1022100001EB201000F00F00ADF802009DF81A004D
:1022200001EB201000F00F00ADF804002068410021
:10223000BDF90000403091FBF0F000B2ADF81000A5
:1022400060684100BDF90200403091FBF0F000B23F
:10225000ADF81200A0684100BDF90400403091FBC8
:10226000F0F000B2ADF81400D8494968087806AB20
:102270000622114602F00BF910B14FF0FF30AEE725
:102280009DF819009DF8181040EA012000B2ADF841
:1022900008009DF81B009DF81A1040EA012000B2CA
:1022A000ADF80A009DF81D009DF81C1040EA0120C1
:1022B00000B2ADF80C00BDF81000BDF808100844DD
:1022C00000B2ADF81000BDF81200BDF80A100844C5
:1022D00000B2ADF81200BDF81400BDF80C100844AF
:1022E00000B2ADF81400BDF81000000A8DF8180017
:1022F000BDF81000C0B28DF81900BDF81200000A38
:102300008DF81A00BDF81200C0B28DF81B00BDF8A0
:102310001400000A8DF81C00BDF81400C0B28DF83E
:102320001D00AA494968087806AB0622114602F04A
:102330004CF810B14FF0FF3051E700204FE7014655
:10234000A248007A30B1012807D0022809D003281A
:102350000FD10AE0FA2008800EE04FF4FA700880EE
:102360000AE04FF47A70088006E04FF4FA600880C3
:1023700002E00020088000BF00BF00207047014637
:102380009248407A30B1012807D0022808D00328AB
:102390000CD108E0022008700BE00420087008E06F
:1023A0000820087005E01020087002E04FF0FF30B0
:1023B000704700BF8548C07C18B108784006000E01
:1023C00008700020F4E701468048C07A082817D238
:1023D000DFE800F01704070A0D101318BC2008806E
:1023E00013E06220088010E02A2008800DE014200D
:1023F00008800AE00A20088007E00520088004E041
:1024000000BF00BF0020088000BF00BF0020704751
:1024100001466E4890F8240010B14FF0FF3070472D
:102420006A48C08908800020F9E70146002008803A
:10243000401E704701464FF0FF3070470146634829
:10244000007A30B1012807D0022808D003280CD127
:1024500008E05F4808600BE05E48086008E05E48FE
:10246000086005E05D48086002E04FF0FF3070470B
:1024700000BF0020FBE701465448407A30B10128F4
:1024800008D002280AD0032810D10BE04FF4804076
:1024900008800EE041F69C7008800AE04FF48050FE
:1024A000088006E04FF40060088002E04FF0FF3043
:1024B000704700BF4548C07C10B1088840100880B4
:1024C0000020F5E701464148007C08700020704775
:1024D00001463E48807A10B10120087001E00020DA
:1024E00008700020704738B504463848807A10B923
:1024F0004FF0FF3038BD354A1268117C334A5268BC
:1025000010786B46022201F0C2FF10B14FF0FF308D
:10251000F0E79DF801009DF8001040EA012000B2AC
:1025200020800020E6E72DE9FE4F074688469246C8
:102530001D46DDF830B000260024244890F8240021
:1025400010B1601EBDE8FE8F002028701F48807A01
:1025500010B94FF0FF30F5E71C48007C10B94FF080
:10256000FF30EFE71948007C00F0400008B1B01CD4
:10257000C6B21648007C00F0200008B1B01CC6B2FC
:102580001248007C00F0100008B1B01CC6B20F4821
:10259000007C00F0080008B1B01DC6B20B4A1268FA
:1025A000917A0A4A526810786B46022201F06FFF56
:1025B00010B14FF0FF30C5E79DF801009DF8001005
:1025C00040EA0129B1450BDA0020BBE74C000020AE
:1025D000000003430000834233330342333383411B
:1025E000FE4840684088B9EB600F17DDFB4A12686F
:1025F000517CFA4A526810786B46012201F047FF7D
:1026000010B14FF0FF309DE79DF8000000F0100082
:1026100020B1FFF791F96FF0010093E75046FFF703
:10262000EAFCEE4A1268D17AEC4A526810786B469E
:10263000324601F02CFF10B14FF0FF3082E799FBDA
:10264000F6F0401E8BF8000000202870B4422AD01B
:10265000E248007C00F0080028B3601C1DF8000070
:102660001DF8041040EA012000B2A8F80000E01CA8
:102670001DF80010A01C1DF8000041EA002000B267
:10268000A8F80200601D1DF80010201D1DF80000B4
:1026900041EA002000B2A8F80400287840F00800C1
:1026A0002870A01D84B2B44213D0CC48007C00F046
:1026B000400070B1601C1DF800001DF8041040EAD5
:1026C000012000B23880287840F040002870A01C1B
:1026D00084B2B44213D0C148007C00F0200070B135
:1026E000601C1DF800001DF8041040EA012000B233
:1026F0007880287840F020002870A01C84B2B44272
:1027000013D0B648007C00F0100070B1601C1DF8BA
:1027100000001DF8041040EA012000B2B8802878BB
:1027200040F010002870A01C84B200200AE7F8B521
:1027300004460F461646A94890F8240010B94FF0F9
:10274000FF30F8BDA548807A10B94FF0FF30F8E7A8
:10275000A24A1268917AA14A526810786B46022206
:1027600001F095FE10B14FF0FF30EAE79DF801004F
:102770009DF8001040EA0125A54203DA00203070E0
:10278000401EDEE7954840684088B5EB600F17DDD6
:10279000924A1268517C914A526810786B46012225
:1027A00001F075FE10B14FF0FF30CAE79DF8000050
:1027B00000F0100020B1FFF7BFF86FF00100C0E794
:1027C000E2B2864B1B68D97A844B5B6818783B462B
:1027D00001F05DFE10B14FF0FF30B2E795FBF4F071
:1027E000401E30700020ACE701467C4880F8221083
:1027F000002070477CB5054678494968087801ABE8
:1028000004220D2101F043FE08B107207CBD9DF894
:102810000700C0F301109DF8041001F0E00140EA48
:10282000E1008DF800009DF80700C0F381009DF8DD
:10283000051001F0E00140EAE1008DF801009DF88B
:10284000070000F003009DF8061001F0E00140EAE7
:10285000E1008DF8020000241CE01DF8040018B906
:10286000002045F8240013E05D4845F8240006E008
:1028700055F824005B4906F095FC45F824001DF846
:102880000400401EC0B20DF804000028F0D100BFC3
:10289000601CC4B2032CE0DB0020B7E72DE9F04F49
:1028A00085B006468946002502A8FFF7A3FF00244D
:1028B00049E056F8240059F82410471A002F01DB8C
:1028C000394600E07942084606F00CFC80464FF09D
:1028D0008F4106F0D5FA824602A951F82400002162
:1028E00006F090FB1FD002A850F82410504606F0C6
:1028F000C7FA07464FF07E5106F052FD8346584610
:1029000006F024FA074620F00040009006F0EAFBAB
:1029100001903548416A019806F010FD12D201205D
:10292000A04005430EE03048C169504606F006FC61
:1029300005D32D48016A504606F000FD02D2012061
:10294000A0400543641C032CB3DB284605B0BDE85A
:10295000F08F2DE9FF5F06460F4600251F494968A5
:10296000087803AB03220D2101F091FD18B1072077
:1029700004B0BDE8F09F9DF80C0000F01F008DF83A
:102980000C009DF80D0000F01F008DF80D009DF863
:102990000E0000F01F008DF80E0000246AE056F8CB
:1029A000240057F82410A0EB010BBBF1000F01DB52
:1029B000594601E0CBF10001084606F093FB4FF0C9
:1029C0008F41029006F05CFA814603A8005DE8B3EF
:1029D0000549086806F09EFB834607E04C0000208E
:1029E0007B14AE3E1D5A843FA89500085946FE4808
:1029F00006F046FA804604E0FC49404606F0D2FB69
:102A0000804603A8005D401EC0B203A908550028F7
:102A1000F2D14146484606F033FA83464FF07E51E4
:102A200006F0BEFC8246504606F090F9CDE9000162
:102A300020F00040834606F055FB0290EC48816987
:102A4000029806F07BFC14D2012000E002E0A040D6
:102A500005430EE0E6480169484606F06FFB05D3E2
:102A6000E3484169484606F069FC02D20120A040D3
:102A70000543641C032C92DB284679E72DE9F04FCF
:102A800087B005460C46914601208DF810000020C5
:102A90008DF81100D74A1268917CD64A5268107896
:102AA00004AB022201F091FC20B14FF0FF3007B0DF
:102AB000BDE8F08FC82001F04AFE00208DF810001C
:102AC000CC4A1268D17BCB4A5268107804AB012201
:102AD00001F07BFC10B14FF0FF30E8E7C54A126807
:102AE0005179C44A5268107804AB012201F06DFCA0
:102AF00010B14FF0FF30DAE7BE4A1268917CBD4A50
:102B00005268107804AB012201F05FFC10B14FF065
:102B1000FF30CCE7B74A1268D17DB64A52681078C8
:102B200004AB012201F051FC10B14FF0FF30BEE7C1
:102B3000B04A12681179AF4A5268107804AB01228A
:102B400001F043FC10B14FF0FF30B0E70C208DF8DE
:102B50001000A84A12681179A64A5268107804AB8E
:102B6000012201F032FC10B14FF0FF309FE70F203F
:102B700001F0EDFD9F48806A407A8DF810009D4A73
:102B8000126891789B4A5268107804AB012201F0D8
:102B90001CFC10B14FF0FF3089E79648806A007A3C
:102BA0008DF81000934A12685178924A5268107852
:102BB00004AB012201F009FC10B14FF0FF3076E7C1
:102BC000B9F1000F07D08B48806A807A40F0E000AE
:102BD0008DF8100004E08748806A807A8DF8100034
:102BE000844A12689179834A5268107804AB0122B2
:102BF00001F0EBFB10B14FF0FF3058E7B9F1000FD7
:102C000007D07C48806AC07A40F0E0008DF8100060
:102C100003E07748C07A8DF81000764A1268D179BF
:102C2000744A5268107804AB012201F0CEFB10B157
:102C30004FF0FF303BE7B9F1000F02D0C82001F0A0
:102C400086FD40208DF810006A4A12681179694AA1
:102C50005268107804AB012201F0B7FB10B14FF0BD
:102C6000FF3024E778208DF81000624A126851790D
:102C7000604A5268107804AB012201F0A6FB10B143
:102C80004FF0FF3013E75A49888901F060FD0020BA
:102C90008DF81000574A12685179564A52681078D8
:102CA00004AB012201F091FB10B14FF0FF30FEE6C2
:102CB000504A1268917A4F4A5268107804AB022247
:102CC00001F0E5FB10B14FF0FF30F0E69DF8110088
:102CD0009DF8101040EA012B0C209BFBF0F0C6B2CF
:102CE0000020A86068602860A06060602060824664
:102CF00065E0404A1268D17A3E4A5268107804ABC7
:102D00000C2201F0C4FB10B14FF0FF30CFE69DF86C
:102D100011009DF8101040EA012000B2ADF8080043
:102D20009DF813009DF8121040EA012000B2ADF8A2
:102D30000A009DF815009DF8141040EA012000B229
:102D4000ADF80C00BDF90810206808442060BDF9FA
:102D50000A10606808446060BDF90C10A06808445F
:102D6000A0609DF817009DF8161040EA012000B2FF
:102D7000ADF800009DF819009DF8181040EA0120F8
:102D800000B2ADF802009DF81B009DF81A1040EA51
:102D9000012000B2ADF80400BDF900102868084415
:102DA0002860BDF90210686808446860BDF9041025
:102DB000A8680844A8600AF1010000F0FF0AB245C3
:102DC00097DB0B48D0F800C02868C117090441EA16
:102DD0001041070462460023384603F0A5FA324644
:102DE0000023CDE9020107E000B04C4554E3853FE4
:102DF000A89500084C00002003F096FA2860F748D8
:102E0000D0F800C06868C117090441EA10410704FE
:102E100062460023384603F087FA32460023CDE9A4
:102E2000020103F081FA6860EC48D0F800C0A8689D
:102E3000C117090441EA10410704624600233846DD
:102E400003F072FA32460023CDE9020103F06CFA76
:102E5000A860E248D0F804C02168C817000440EA1E
:102E600011480F04624600233846414603F05CFADD
:102E700032460023CDE9020103F056FA2060D7481C
:102E8000D0F804C06068C117090441EA1041070482
:102E900062460023384603F047FA32460023CDE964
:102EA000020103F041FA6060CC48D0F804C0A06889
:102EB000C117090441EA104107046246002338465D
:102EC00003F032FA32460023CDE9020103F02CFA76
:102ED000A060A068002804DDA068A0F58030A06094
:102EE00003E0A06800F58030A0600020DFE538B581
:102EF0000446BB4890F82400A04201D1002038BD10
:102F000024B3B74890F8250010B94FF0FF30F6E72A
:102F10000020FEF74BFB0020FEF76AFCB049C88C8E
:102F2000FEF7C9FE00200090AD49496808786B465D
:102F30000122232101F049FA0121A94880F8241037
:102F40000120FEF733FBFEF7F7FC13E00020FEF74D
:102F50002DFBA348007C0090A149496808786B4686
:102F60000122232101F031FA00219D4880F824102C
:102F7000FEF7E2FC0020C2E72DE9F04F8DB083465A
:102F80000F4602200C90964890F8240020B10020B3
:102F9000FFF7ADFF012600E0002603A8FFF7CFF9F9
:102FA00005A8FFF7ECF901A8FFF70DFA02A8FFF753
:102FB0002FFA8B4890F80AA004A8FFF783FA0024A0
:102FC00007E0002239465846FFF758FD00B902E0F5
:102FD000641C022CF5DB00BF022C01D1002528E087
:102FE000002407E0012206A909A8FFF747FD00B960
:102FF00002E0641C022CF5DB00BF022C01D100258D
:1030000017E006A93846FFF749FC00F0FF0809A9B8
:103010005846FFF79EFC00F0FF090025B9F1000FAC
:1030200001D145F00105B8F1000F01D145F00205CD
:1030300000BFFF206A490872FF2169484172C172CE
:103040004FF6FF71C181FF2181720174012101736B
:10305000BDF80C00FEF7BDFE9DF81400FEF777FEEC
:10306000BDF80400FEF77BFDBDF80800FEF723FE67
:103070005046FEF758FB9DF81000FEF73BFD16B1D9
:103080000120FFF734FF28460DB0BDE8F08FF8B5FA
:1030900004460D46164616B94FF0FF30F8BD5048AD
:1030A000807A10B94FF0FF30F8E720128DF8000059
:1030B000E0B28DF801009DF80100284448494968B4
:1030C0004989884202DD4FF0FF30E7E7444A126841
:1030D000117E434A526810786B46022201F075F95E
:1030E00010B14FF0FF30D9E7EAB23D4B1B68597D74
:1030F0003B4B5B681878334601F067F910B14FF02D
:10310000FF30CBE70020C9E7F8B504460D46164668
:1031100016B94FF0FF30F8BD3148807A10B94FF042
:10312000FF30F8E720128DF80000E0B28DF80100C2
:103130009DF8010028442A4949684989884202DDEE
:103140004FF0FF30E7E7264A1268117E244A5268A2
:1031500010786B46022201F038F910B14FF0FF30C1
:10316000D9E7EAB21E4B1B68597D1D4B5B68187886
:10317000334601F08CF910B14FF0FF30CBE700205F
:10318000C9E72DE9FC4705460E4690469946144886
:1031900090F8250018B14FF0FF30BDE8FC8716B954
:1031A0004FF0FF30F9E7002427E0281B012801DD5C
:1031B000012000E0281B87B2321939462046FFF76C
:1031C00066FF10B14FF0FF30E7E701AA394620460D
:1031D000FFF79AFF30B14FF0FF30DEE7A895000807
:1031E0004C00002030193A4601A903F01BFA10B137
:1031F0006FF00100D1E7E01984B2AC42D5DB4FEAB1
:1032000028208DF8000008F0FF008DF80100924A98
:103210001268917E904A526810786B46022201F043
:10322000D4F810B14FF0FF30B7E701218A4880F899
:103230002510A0F826900020AFE70146864890F8B8
:10324000240008700020704702464FF0FF3070479E
:1032500001464FF0FF307047F8B505460F4614465B
:10326000002C70D0B5F5FF5F01DDFF2605E0202DB5
:1032700001DA012601E0C5F3471607B90127282C1A
:1032800002DD4FF0FF30F8BD7348407D28BB724827
:1032900090F8240038B10020FFF729FE01216E4884
:1032A00080F8201003E000216B4880F820106A4865
:1032B0001630FFF744F868481830FFF760F86648A2
:1032C0001A30FFF780F864481C30FFF7A1F8624815
:1032D000817A81771F30FFF7F5F80020FEF766F955
:1032E0000020FEF77BFC00208DF800005A4A12688F
:1032F0009178594A526810786B46012201F065F8BE
:1033000010B14FF0FF30BEE740208DF80000524A68
:103310001268D17B504A526810786B46012201F046
:1033200054F800B165E08DF800608DF801704A4AEC
:103330001268117A484A526810786B46022201F0EE
:1033400044F808B155E047E0052001F000FA424892
:10335000407A072101EBC000C0B28DF800003E4A60
:103360001268D1793C4A526810786B46012201F00C
:103370002CF800B13DE020208DF80000012C03D195
:1033800000208DF801000EE0052C03DC01208DF8F3
:10339000010008E0142C03DC02208DF8010002E09B
:1033A00003208DF801009DF80100072101EB80103A
:1033B000C0B28DF80100284A1268917C264A5268F2
:1033C00010786B46022201F000F800B111E00121F3
:1033D00021484175002056E71F4A1632002103E0BC
:1033E000505C00B105E0491C0C29F9D34FF0FF30C7
:1033F00049E7FF2018490872FF2117484172C1723E
:103400004FF6FF71C181FF218172017401210173A7
:103410000146887FFEF787F90F49C88AFEF7D9FC75
:103420000D49087EFEF793FC0B49488BFEF797FB8E
:103430000949888BFEF73FFC0749C87FFEF75AFB16
:10344000054890F8200010B10120FFF750FD002141
:1034500001484175002016E74C00002010B5C82334
:103460004FF48062F74940F6F630FFF78AFE10BD50
:1034700010B586B00446F4A000680390F3A000687D
:103480000290F3A000680190F2A00068009004F0A0
:10349000030003A9085C8DF8140003A8C4F3C1015C
:1034A000405C8DF8150003A8C4F38111405C8DF8D1
:1034B000160004F0030002A9085C8DF8100002A8B1
:1034C000C4F3C101405C8DF8110002A8C4F381115E
:1034D000405C8DF8120005AA032140F22640FFF758
:1034E000D6FD18B14FF0FF3006B010BD04AA03217D
:1034F00040F22A40FFF7CBFD10B14FF0FF30F3E769
:10350000019805900098049004F0040058B19DF8CB
:10351000140040F001008DF814009DF8100040F0F8
:1035200001008DF8100004F0200058B19DF815003E
:1035300040F001008DF815009DF8110040F00100E9
:103540008DF8110004F4807058B19DF8160040F019
:1035500001008DF816009DF8120040F001008DF872
:10356000120005AA03214FF48860FFF790FD10B107
:103570004FF0FF30B8E704AA032140F23140FFF7D3
:1035800086FD10B14FF0FF30AEE7B3480481002054
:10359000AAE71FB50446B048007A00F0030054F8CB
:1035A00020000190AC48007A00F0040010B10198AE
:1035B00040420190A848007AC0F3C10054F82000AE
:1035C0000290A548007A00F0200010B10298404215
:1035D0000290A148007AC0F3811054F820000390B3
:1035E0009D48008900F4807010B103984042039018
:1035F0009A49019880FB0101800F40EA8100019007
:103600009649029880FB0110820042EA9170029074
:103610009249039880FB0110820042EA9170039066
:103620000198000E8DF800000198000C8DF8010043
:103630000198000A8DF802000198C0B28DF80300CD
:103640006A4604214FF47470FFF721FD18B14FF062
:10365000FF3004B010BD0298000E8DF800000298F3
:10366000000C8DF801000298000A8DF80200029803
:10367000C0B28DF803006A4604214FF47570FFF75D
:1036800006FD10B14FF0FF30E3E70398000E8DF810
:1036900000000398000C8DF801000398000A8DF8D3
:1036A00002000398C0B28DF803006A4604214FF46B
:1036B0007670FFF7ECFCCCE770B588B0064601A841
:1036C000FEF7D9FEBDF804000021C90341EA5045C8
:1036D000C4036148007A00F0030056F8200005900A
:1036E0005D48007A00F0040010B105984042059052
:1036F0005948007AC0F3C10056F820000690564899
:10370000007A00F0200010B106984042069052481E
:10371000007AC0F3811056F8200007904E480089C7
:1037200000F4807010B10798404207900598C117C7
:10373000A0FB042301FB043100FB0510810041EADA
:10374000927005900698C117A0FB042301FB043179
:1037500000FB0510810041EA927006900798C1179E
:10376000A0FB042301FB043100FB0510810041EAAA
:10377000927007900598000E8DF808000598000CCF
:103780008DF809000598000A8DF80A000598C0B266
:103790008DF80B000698000E8DF80C000698000CB2
:1037A0008DF80D000698000A8DF80E000698C0B23C
:1037B0008DF80F000798000E8DF810000798000C88
:1037C0008DF811000798000A8DF812000798C0B212
:1037D0008DF8130002AA0C214FF42570FFF757FC57
:1037E00008B070BD30B585B004461DA207CA02AB53
:1037F00007C3C82C03DD4FF0FF3005B030BDC82033
:1038000090FBF4F0401E85B2280A8DF80000E8B263
:103810008DF801006A46022140F21620FFF737FCBE
:1038200010B14FF0FF30E8E702AA0C2140F6C120AA
:10383000FFF72DFC10B14FF0FF30DEE70648848122
:103840000020DAE7D09500084CCD6C000CC92C00A4
:103850003656760026466600DC05002009E3CA02DB
:10386000FEF2ABC4AAF1DFDFBBAFDFDF0146FC48ED
:1038700080890880002070472DE9FC4706460F46E6
:1038800006F0070010B1B7F5C86F03DD4FF0FF3049
:10389000BDE8FC87384605F03DFC8146F14905F05E
:1038A000EFFA80466846FEF76AFD9DF800000228A0
:1038B00006D0042816D0082826D0102848D135E094
:1038C0004FF08D41404605F06DFC814605F0EAFB66
:1038D00084B2E549404605F065FC814605F0E2FB0F
:1038E00085B238E04FF08C41404605F05BFC8146E4
:1038F00005F0D8FB84B2DD49404605F053FC814613
:1039000005F0D0FB85B226E04FF08B41404605F034
:1039100049FC814605F0C6FB84B2D549404605F016
:1039200041FC814605F0BEFB85B214E04FF08A41B0
:10393000404605F037FC814605F0B4FB84B2CD4922
:10394000404605F02FFC814605F0ACFB85B202E055
:103950004FF0FF309CE700BF20128DF80400E0B26A
:103960008DF8050028128DF80600E8B28DF80700E2
:1039700006F00100A0B101AA02214FF4EA70FFF79E
:1039800086FB10B14FF0FF3082E70DF106020221F5
:103990004FF49270FFF77BFB10B14FF0FF3077E7E9
:1039A00006F00200A0B101AA02214FF4EC70FFF76B
:1039B0006EFB10B14FF0FF306AE70DF106020221F5
:1039C0004FF49470FFF763FB10B14FF0FF305FE7E7
:1039D00006F00400A0B101AA02214FF4EE70FFF737
:1039E00056FB10B14FF0FF3052E70DF106020221F5
:1039F0004FF49670FFF74BFB10B14FF0FF3047E7E5
:103A0000002045E738B504460020009004F001008E
:103A100020B19DF8000040F03000009004F002005A
:103A200020B19DF8000040F00C00009004F004006C
:103A300020B19DF8000040F0030000906A4601218B
:103A40004FF4A470FFF723FB38BD38B50446012CB2
:103A500001DA012402E0042C00DD0424601EC0B25F
:103A600000906A46012140F24F10FFF710FB38BD6D
:103A700038B50446052094FBF0F085B228128DF885
:103A80000000E8B28DF801006A4602214FF4EF70A1
:103A9000FFF7FDFA38BD38B50446052094FBF0F079
:103AA00085B228128DF80000E8B28DF801006A4650
:103AB00002214FF4ED70FFF7EAFA38BDF8B505467C
:103AC0000E464FF47A7095FBF0F000FB06F4200EE2
:103AD0008DF80000200C8DF80100200A8DF80200FE
:103AE000E0B28DF803006A4604214FF4AE70FFF790
:103AF000CEFAF8BD38B50446052094FBF0F084B248
:103B000020128DF80000E0B28DF801006A46022113
:103B10004FF4AD70FFF7BBFA38BD38B50446052049
:103B200094FBF0F084B220128DF80000E0B28DF822
:103B300001006A4602214FF4AC70FFF7A8FA38BDC5
:103B400038B5044614B94FF0FF3038BD6A46042139
:103B50004FF45870FFF7D8FA10B14FF0FF30F4E788
:103B60009DF8000000069DF8011040EA01409DF814
:103B7000021040EA01209DF8031008432060002055
:103B8000E3E738B50446200E8DF80000200C8DF8D0
:103B90000100200A8DF80200E0B28DF803006A46A9
:103BA00004214FF45870FFF772FA38BD38B5044657
:103BB00014B94FF0FF3038BD6A4604214FF47170DC
:103BC000FFF7A2FA10B14FF0FF30F4E79DF80000C4
:103BD00000069DF8011040EA01409DF8021040EAFD
:103BE00001209DF80310084300EB80008000206056
:103BF0000020E0E738B504461420B4FBF0F4200EB2
:103C00008DF80000200C8DF80100200A8DF80200CC
:103C1000E0B28DF803006A4604214FF47170FFF79B
:103C200036FA38BD38B5044664B120208DF800005E
:103C300028208DF8010030208DF8020038208DF802
:103C4000030004E0A3220421684602F036FD6A4620
:103C5000042140F69E20FFF71AFAFDF76DFE38BDED
:103C6000DC05002000004843000040460000C0453D
:103C7000000040450000C04438B5044664B1C0208F
:103C80008DF80000C2208DF80100C4208DF80200DC
:103C9000C6208DF8030004E08B220421684602F060
:103CA0000CFD6A46042140F69820FFF7F0F9FDF775
:103CB00043FE38BD3EB504466CB1FDA1D1E90020FC
:103CC0008968CDE9002002916A4609214FF4976086
:103CD000FFF7DDF93EBDF9A2D2E900109268CDE907
:103CE000010200916A4609214FF49760FFF7CFF96E
:103CF000F0E73EB5044602208DF80000CA208DF89A
:103D00000100E3208DF8020009208DF803006A46C7
:103D100004216820FFF7BBF9A3208DF8000004F010
:103D2000400048B1C0208DF80100C8208DF8020085
:103D3000C2208DF8030006E0A3208DF801008DF865
:103D400002008DF8030004F4C07048B1C4208DF85F
:103D50000400CC208DF80500C6208DF8060006E092
:103D6000A3208DF804008DF805008DF80600A3202F
:103D70008DF807008DF808008DF809006A460A21C1
:103D800040F6A720FFF783F904F0030018B12020C4
:103D90008DF8000002E0D8208DF800006A4601216D
:103DA00040F6B620FFF773F904F0200018B10120A7
:103DB000FFF780FF02E00020FFF77CFF04F4C070F3
:103DC00008B304F4807060B1B2208DF800008B203D
:103DD0008DF80100B6208DF802009B208DF80300BD
:103DE0000BE0B0208DF8000080208DF80100B42099
:103DF0008DF8020090208DF803006A46042140F6F9
:103E0000A220FFF744F904F0010020B3F8208DF858
:103E100000006A4601214FF40B60FFF738F9FA21E0
:103E20000720FFF729FD0720FFF7ECFD0120FFF732
:103E30000CFE6420FFF71CFE4FF4FA70FFF72BFE18
:103E4000C821A148FFF73AFE2820FFF753FE0A20B9
:103E5000FFF763FE08E0D8208DF800006A460121D4
:103E60004FF40B60FFF713F904F0020018B1D920EA
:103E70008DF8000002E0D8208DF800006A4601218C
:103E800040F23D70FFF703F904F0040018B101207F
:103E9000FFF7F2FE02E00020FFF7EEFE04F0100054
:103EA00018B10120FFF7BEFE02E00020FFF7BAFEC6
:103EB00044F0080085494881FDF73EFD0020834914
:103EC000887304F0400018B10846807B801D887319
:103ED00004F4C07020B17D48807B801D7B498873CD
:103EE00004F0140020B17948807B10307749887342
:103EF00004F0030020B17548807B001D734988736E
:103F000000203EBD0146714840890880002070476E
:103F10002DE9F0410446E07800F0C006E07800F0BA
:103F20003F05607800F0010098B1EF102846E917CE
:103F300005EB5171C910A5EBC101491C01F0FF0847
:103F40006248006820B1614841460268384690479F
:103F500000BF607800F0080030B15C48406818B1DC
:103F6000B0115A4A516888470020BDE8F08110B569
:103F700086B0044656A207CA03AB07C357A207CAB6
:103F80008DE80700012C09D0022C0ED103AA0B21C9
:103F900040F68220FFF77BF806B010BD6A460B2181
:103FA00040F68220FFF773F8F6E74FF0FF30F3E7B3
:103FB0002DE9F04F8DB00746884615469946DDE954
:103FC000166B0024002030804049887B5A4605A9A2
:103FD000FEF7ADFB18B1601E0DB0BDE8F08F3B4899
:103FE000807A00F01400002861D09DF814000006CB
:103FF0009DF8151040EA01409DF8161040EA012096
:104000009DF81710084328609DF8180000069DF8D9
:10401000191040EA01409DF81A1040EA01209DF86D
:104020001B10084368609DF81C0000069DF81D10D9
:1040300040EA01409DF81E1040EA01209DF81F1043
:104040000843A8609DF8200000069DF8211040EA72
:1040500001409DF8221040EA01209DF823100843FA
:10406000E86004F11000C4B2286800140190686888
:1040700000140290A86800140390E86800140490EB
:1040800001984043029901FB0100039901FB0100E3
:10409000049901FB010ABAF1706F02DBBAF1885F83
:1040A00022DDFDF749FC00203080401E94E721E02E
:1040B000B8AAB38DB4980D355D000000B8AAAAAABD
:1040C000B088C3C5C700000009E3CA02DC050020B0
:1040D000D8B1B9F38BA391B609B4D900DAB1B9F369
:1040E0008BA391B6DAB4DA00B6F9000040F4807020
:1040F000308000BF3448807A00F0400020B305A92A
:10410000601C085C095D40EA012000B2A8F80000CC
:1041100005A9E01C095C05AAA01C105C41EA00206E
:1041200000B2A8F8020005A9601D095C201D105C02
:1041300041EA002000B2A8F80400A01DC4B2B6F9FC
:10414000000040F0080030801F48408900F4C07033
:1041500008B305A9601C085C095D40EA012000B2B3
:10416000388005A9E01C095C05AAA01C105C41EA86
:10417000002000B2788005A9601D095C201D105C3C
:1041800041EA002000B2B880A01DC4B2B6F9000018
:1041900040F0700030800C48807A00F0030018B1C5
:1041A00005A90819FFF7B4FE4846FDF724FF0020D3
:1041B00012E70146044801600020704701460248AA
:1041C0004160002070470000DC05002008B5012197
:1041D000082000F033FFC020ADF8000010208DF85B
:1041E000030003208DF802006946FB4800F06AFCDA
:1041F00008BD10B5F848006820F07040F649086026
:104200000846006840F0405008600120F34908600B
:10421000F348D0F81C0108B9002010BD0120EF4977
:10422000091F086000F06FFA0020ED49C1F89C01F9
:10423000EA488038006808B10020EEE7012000F06D
:1042400062FA0020E549091F08600120E5E710B582
:10425000E148006820F07040DF49086008460068C7
:1042600040F0405008600020DC49091F0860DC492C
:10427000C1F89C01012000F046FA0120D749091F2E
:104280000860D749C1F89C0100F03DFA10BD10B597
:104290000024D148006820F07040CF4908600846EB
:1042A000006840F0004008600120CC49086000F040
:1042B0002AFA0120CA49C1F8980100F024FA0AE05C
:1042C000601CC4B2322C03DDFFF7C1FF002010BD1B
:1042D000012000F018FAC148803800680028EFD1AA
:1042E000BE49091F08600120F1E710B50020BB4955
:1042F000091F0860B848006820F07040B64908609F
:104300000846006840F0405008600020B449C1F8F9
:104310009C01012000F0F7F90120B049091F086055
:1043200000F0F1F90020AE49C1F8980110BD10B5B8
:104330000020AA49091F0860A748006820F07040C3
:10434000A54908600846006840F040500860012018
:10435000A349C1F89C0100F0D6F901209F49091F2B
:10436000086000F0D0F900209D49C1F8980110BD07
:1043700070B504469848006820F07040964908607F
:104380000846006840F04050086000209349091F2B
:104390000860002516E0E009904908606006040EF8
:1043A000012000F0B0F901208D49C1F8980100F01A
:1043B000AAF900208949091F0860012000F0A3F92B
:1043C000681CC5B2082DE6DB70BD2DE9F04105463D
:1043D0000E4617469846FFF70CFF10B90120BDE8BE
:1043E000F0816906080EFFF7C3FFFFF750FF18B909
:1043F000FFF72DFF0120F2E73046FFF7B9FFFFF787
:1044000046FF00240BE018F80400FFF7B1FFFFF7A8
:104410003EFF18B9FFF71BFF0020E0E7641CBC4219
:10442000F1DBFFF714FF0020D9E770B50546002443
:104430006948006820F070406749086008460068D5
:1044400040F000400860002617E000206349091F83
:104450000860022000F057F901206149C1F8980175
:104460006006040E5D488038006808B1601CC4B264
:10447000022000F048F9701CC6B2082EE5DB15B129
:10448000FFF733FF01E0FFF752FF204670BD2DE933
:10449000F04106460F4614461D46FFF7AAFE10B926
:1044A0000120BDE8F0817106080EFFF761FFFFF7FC
:1044B000EEFE18B9FFF7CBFE0120F2E73846FFF712
:1044C00057FFFFF7E4FEFFF794FE012101EB4601E1
:1044D000C8B2FFF74DFFFFF7DAFE0DE0012C04D163
:1044E0000020FFF7A2FF287003E00120FFF79DFFE7
:1044F00028706D1C601EC4B2002CEFD1FFF7A7FE20
:104500000020CEE770B505460E460024FFF771FE89
:104510002846FFF72DFF641CFFF7B9FE3046FFF772
:1045200027FF641CFFF7B3FEFFF763FE691CC8B2E8
:10453000FFF71EFF641CFFF7AAFE0020FFF775FFC0
:104540000446FFF784FE204670BD2DE9F041074682
:10455000884615461E460024FFF74BFE3846FFF7F7
:1045600007FFFFF794FE4046FFF702FFFFF78FFEBD
:10457000FFF73FFE791CC8B2FFF7FAFEFFF787FE90
:1045800000BF0DE0681EA04204D00120FFF74DFFE0
:10459000305503E00020FFF748FF3055601CC4B2DF
:1045A000AC42EFDBFFF753FE2046BDE8F0812DE97A
:1045B000F04180460D4616461F460024FFF719FEBF
:1045C0004046FFF7D5FEFFF762FE2846FFF7D0FE14
:1045D000FFF75DFE00BF0CE0000C01409C81214212
:1045E00000802142385DFFF7C3FEFFF750FE601CDC
:1045F000C4B2B442F6DBFFF72AFE0120BDE8F08129
:1046000070B505460E46144631462846FFF77AFF38
:104610002070012070BD37B504460D4602AB012263
:1046200029462046FFF7C3FF3EBD2DE9F843074664
:10463000884614461D46089E6A4641463846FFF79E
:10464000DFFF28B3601CFF2101FA00F0C4F108016C
:104650002944491EFF220A41104300F0FF09C5F119
:10466000080006FA00F0C6B2C4F1070006419DF842
:10467000000000EA090000909DF80000304300901F
:104680009DF8002041463846FFF7C5FFBDE8F88396
:104690000020FBE7F8B506460F4614461D466A465D
:1046A00039463046FFF7ACFF2DB10120A0409DF800
:1046B0000010084305E00120A0409DF8001021EA09
:1046C0000000C0B200909DF8002039463046FFF748
:1046D000A2FFF8BD10B56FF0040000F074F92E4889
:1046E00000682E49B0FBF1F02D49087008460078AB
:1046F00000EB4001C1EBC0104FF6FF7101EAC000B2
:104700002849088010BD0146254A12784A434FF0D7
:10471000E0235A6100229A611A46126942F00102AE
:104720001A6100BF4FF0E022106900F001021AB1D7
:1047300000F48032002AF5D04FF0E022126922F016
:1047400001024FF0E0231A6100229A61704701468E
:10475000144A12884A434FF0E0235A6100229A61BA
:104760001A46126942F001021A6100BF4FF0E022BE
:10477000106900F001021AB100F48032002AF5D06D
:104780004FF0E022126922F001024FF0E0231A619B
:1047900000229A61704700000000002000127A0099
:1047A000780000207A000020014600BF704700BF5B
:1047B000494A128802F04002002AF9D0C2B2464BA0
:1047C0001B1D1A80704710B586B00446012144F2C3
:1047D000040000F033FC4FF40070ADF81400032027
:1047E0008DF8160018208DF8170005A93B4800F039
:1047F00069F94FF48060ADF8140004208DF81700BB
:1048000005A9364800F05EF925208DF80000032048
:104810008DF801008DF8020001208DF80300684634
:1048200000F087F801940020ADF80800ADF80A0008
:10483000ADF80C00ADF810000C20ADF80E0001A989
:10484000254800F0A2FC012240F22551224800F048
:1048500034FD0121204800F024FD06B010BD10B544
:1048600040F225511C4800F00DFE10B31A4800F02C
:1048700089FDC4B21A48008800F40040C8B918483D
:10488000008800F4804060B10A2C03D00020144955
:10489000088020E01248008840F400401049088059
:1048A00019E00D2C06D10E48008840F480400C49D8
:1048B000088010E00A480088C0F30D0009490C5434
:1048C00007480088401C0649088008460088C72819
:1048D00001DD0020088010BD0038014000080140C3
:1048E00080000020EC050020094880470948004767
:1048F000FEE7FEE7FEE7FEE7FEE7FEE7FEE7FEE790
:10490000FEE7FEE704480549054A064B70470000EC
:10491000130600083101000818070020180D0020B8
:10492000180900201809002031490143314A11605B
:10493000704770B5002100230F22C47804B32D4CBA
:10494000246804F4E064C4F5E064210AC1F10403BE
:10495000CA40447804FA03F18478144021430901E1
:10496000254C0678A155047804F01F050124AC40BD
:1049700005786D11AD0005F1E025C5F8004109E0AD
:10498000047804F01F050124AC401C4D0678761114
:1049900045F8264070BD1A4A0A400243154B1B1FBA
:1049A0001A60704739B1134A121D12680243114B45
:1049B0001B1D1A6006E00F4A121D126882430D4B40
:1049C0001B1D1A607047042808D14FF0E0210969C7
:1049D00041F004014FF0E022116107E04FF0E021C7
:1049E000096921F004014FF0E022116170470000D5
:1049F0000000FA050CED00E000E400E080E100E0DA
:104A000080FFFF1F10B50446CC48844208D1012125
:104A1000042000F02DFB0021042000F029FB46E0DB
:104A2000C748844208D10121082000F021FB002161
:104A3000082000F01DFB3AE0C248844208D1012161
:104A4000102000F015FB0021102000F011FB2EE0DB
:104A5000BD48844208D10121202000F009FB00213B
:104A6000202000F005FB22E0B848844208D1012153
:104A7000402000F0FDFA0021402000F0F9FA16E095
:104A8000B348844208D10121802000F0F1FA0021CE
:104A9000802000F0EDFA0AE0AE48844207D10121FF
:104AA000801500F0E5FA0021A01500F0E1FA10BD34
:104AB00010B50121084600F0DBFA0021012000F0CA
:104AC000D7FA10BD2DE9F04102460025002600204E
:104AD00000230024002791F803C00CF00F0591F883
:104AE00003C00CF0100CBCF1000F03D091F802C011
:104AF0004CEA050591F800C0BCF1000F31D01468F4
:104B000000202BE04FF0010C0CFA00F3B1F800C0CC
:104B10000CEA03069E4220D183004FF00F0C0CFAE2
:104B200003F7BC4305FA03FC4CEA040491F803C004
:104B3000BCF1280F06D14FF0010C0CFA00FCC2F8B2
:104B400014C00AE091F803C0BCF1480F05D14FF042
:104B5000010C0CFA00FCC2F810C0401C0828D1D38C
:104B60001460B1F800C0BCF1FF0F34DD54680020C0
:104B70002EE000F1080C4FF0010808FA0CF3B1F830
:104B800000C00CEA03069E4221D183004FF00F0CB7
:104B90000CFA03F7BC4305FA03FC4CEA040491F851
:104BA00003C0BCF1280F05D100F1080C08FA0CF87D
:104BB000C2F8148091F803C0BCF1480F07D100F18E
:104BC000080C4FF0010808FA0CF8C2F81080401CDD
:104BD0000828CED35460BDE8F0814FF6FF71018004
:104BE000022181700421C170704702460020936841
:104BF0000B400BB1012000E000207047014688689F
:104C000080B2704702460020D3680B400BB10120F0
:104C100000E0002070470146C86880B2704701611B
:104C20007047416170470AB1016100E0416170471E
:104C3000C16070474FF480320A43826181618261B2
:104C400082698269704702460020434B18684FF61C
:104C50008073184040EA021008433F4B18607047C9
:104C60003E49C8617047F0B50A4600230024002180
:104C7000002500F00046B6F1004F02D1364EF16932
:104C800001E0354E7168C0F3034583B200F440166D
:104C9000B6F5401F08D121F070612F4E766826F0DE
:104CA00070662D4F7E6012E000F48016B6F5801F0E
:104CB00006D1032606FA05F4A14341F0706106E02F
:104CC000460D360103FA06F6B14341F0706122B198
:104CD000460D360103FA06F6314300F00046B6F100
:104CE000004F02D11C4EF16101E01B4E7160F0BD1E
:104CF00030B500228B071C0F0F2303FA04F2164B6A
:104D000008338C1053F824309343134C08348D101F
:104D100044F8253023468C1053F824308C07240F98
:104D200000FA04F423430C4C08348D1044F8253069
:104D300030BD0A49DC3108607047000000080140BE
:104D4000000C014000100140001401400018014017
:104D5000001C0140002001400000014000002042F2
:104D6000DF48006840F00100DD49086008464068FF
:104D7000DC490840DA49486008460068DA490840DA
:104D8000D74908600846006820F48020086008467B
:104D9000406820F4FE0048604FF41F0088607047B0
:104DA000CF49096821F48031CD4A11601146096864
:104DB00021F480211160B0F5803F03D0B0F5802F41
:104DC0000ED106E0C649096841F48031C44A116039
:104DD00007E0C349096841F4A021C14A116000E01D
:104DE00000BF00BF704710B501460022002300201D
:104DF0004A11012A02D1BA4C236806E0022A02D1E4
:104E0000B74C236A01E0B64C636A01F01F0201242B
:104E100094401C400CB1012000E0002010BD38B5CA
:104E2000002000900024002500BF3120FFF7DBFFA9
:104E300005460098401C00900098B0F5A06F01D086
:104E4000002DF2D03120FFF7CEFF08B1012400E0A1
:104E50000024204638BD01460020A14A106820F0F9
:104E6000F80040EAC10010607047A0490860704730
:104E7000024600209A4B586820F47C1042EA010355
:104E80001843974B58607047984908667047014629
:104E90000020934A506820F0030008435060704798
:104EA0008F48406800F00C007047014600208C4A93
:104EB000506820F0F0000843506070470146002021
:104EC000874A506820F4E06008435060704701460C
:104ED0000020834A506820F4605040EAC1005060CE
:104EE000704729B17E4A527A02437D4B5A7204E0E0
:104EF0007B4A527A82437A4B5A7270477B49D83147
:104F00000860704701460020754A506820F4404010
:104F10000843506070470021714A20321170704A76
:104F200082F82010012802D004280AD104E00121CF
:104F30006B4A2032117005E00521694A2032117058
:104F400000E000BF00BF70476949086070476449CE
:104F5000096A0143624A1162704765494439086031
:104F6000704730B500210022002400235C4D6D689D
:104F700005F00C0121B1042905D0082923D105E051
:104F80005C4D056022E05B4D05601FE0544D6D688F
:104F900005F47012524D6D6805F48034022505EB5E
:104FA00092421CB9544D554305600BE04C4D6D6861
:104FB00005F400351DB1504D5543056002E04D4DDF
:104FC0005543056002E04B4D056000BF00BF444DF6
:104FD0006D6805F0F0010909484D6B5C0568DD401E
:104FE00045603F4D6D6805F4E061090A434D6B5C17
:104FF0004568DD4085603A4D6D6805F46051C90A29
:105000003E4D6B5C4568DD40C560354D6D6805F40F
:105010004041890B3A4D6B5CC568B5FBF3F5056102
:1050200030BD29B12E4A526902432D4B5A6104E02A
:105030002B4A526982432A4B5A61704729B1284A48
:1050400092690243264B9A6104E0254A92698243A1
:10505000234B9A61704729B1214AD2690243204B00
:10506000DA6104E01E4AD26982431D4BDA6170475F
:1050700029B11B4AD2680243194BDA6004E0184A8E
:10508000D2688243164BDA60704729B1144A12691C
:105090000243134B1A6104E0114A12698243104B18
:1050A0001A61704712494039086070470F49C86457
:1050B00070470B49C87170470948406A40F08070DA
:1050C00007494862704701460020054A92680A4035
:1050D0000AB1012000E00020704701498872704742
:1050E000001002400000FFF8FFFFF6FE0000424201
:1050F0008004424200127A0000093D008200002034
:105100009200002010B50446FB48844209D10121D9
:105110008803FFF7ADFF00214FF48040FFF7A8FFA1
:1051200032E0F648844209D101214804FFF7ADFF7F
:1051300000214FF40030FFF7A8FF25E0F04884423B
:1051400009D101218804FFF7A0FF00214FF480203E
:10515000FFF79BFF18E0EB48844209D10121C80406
:10516000FFF793FF00214FF40020FFF78EFF0BE0C5
:10517000E548844208D101210805FFF786FF002198
:105180004FF48010FFF781FF10BD2DE9F04786B086
:1051900005460E460024A24600BFA1460027B0895E
:1051A00000B100BF2F462C8A4CF6FF700440F088F7
:1051B00004432C82AC894EF6F3100440B088318948
:1051C0000843718908430443AC81AC8A4FF6FF4021
:1051D0000440B0890443AC8201A8FFF7C2FEC64870
:1051E000874202D1DDF810A001E0DDF80CA0A8890B
:1051F00000F4004040B10AEBCA0000EB0A1031682D
:105200004900B0FBF1F807E00AEBCA0000EB0A1016
:1052100031688900B0FBF1F86420B8FBF0F00401BC
:105220002009642101FB1089A88900F4004040B1E5
:10523000322000EBC900B0FBF1F000F0070004439E
:1052400008E0322000EB09106421B0FBF1F000F01F
:105250000F0004432C8106B0BDE8F0874FF41651CF
:10526000016000218180C18001810C2141810021E8
:105270008181704710B502460020108A4FF2FF036B
:1052800018400B884C8823438C882343CC882343C5
:105290001843108210BD0021018041808180C180AF
:1052A000704721B1828942F40052828104E08289F0
:1052B0004DF6FF731A4082817047F0B50346002413
:1052C00000260025002040F66A17B94200D100BF31
:1052D0001846C1F3421401F01F06012707FA06F52C
:1052E000012C01D10C3004E0022C01D1103000E07F
:1052F00014301AB107682F43076002E00768AF4314
:105300000760F0BD1AB1838A0B43838202E0838A6F
:105310008B4383827047028A4FF6F0731A400282F1
:10532000028A0A430282704782894FF2FF731A4051
:10533000828182890A438281704721B1828942F049
:105340000202828104E082894FF6FD731A40828155
:105350007047028A4FF6DF731A400282028A0A43BC
:105360000282704721B1028A42F48042028204E044
:10537000028A4BF6FF731A4002827047C1F308029B
:105380008280704701468888C0F308007047818991
:1053900041F0010181817047028BD2B20283028BFE
:1053A00042EA012202837047028B02F47F420283A9
:1053B000028B0A430283704721B1828A42F02002A5
:1053C000828204E0828A4FF6DF731A40828270473D
:1053D00021B1828A42F01002828204E0828A4FF672
:1053E000EF731A408282704721B1828A42F008022C
:1053F000828204E0828A4FF6F7731A4082827047F5
:1054000021B1828942F40042828103E08289C2F3A1
:105410000E028281704721B1828A42F40062828248
:1054200004E0828A4FF2FF731A4082827047828AB8
:105430004FF6FB731A408282828A0A438282704747
:1054400021B1828A42F00202828204E0828A4FF60F
:10545000FD731A408282704702460020B1F5007F3A
:1054600000D100BF13880B400BB1012000E00020E9
:10547000704701F40072B2F5007F00D100BFCA434B
:105480000280704770B502460024002300250020EA
:1054900040F66A16B14200D100BFC1F3421501F0D7
:1054A0001F03012606FA03F3012D02D1968933402A
:1054B00006E0022D02D1168A334001E0968A33407D
:1054C0000C12012606FA04F41688344013B10CB10C
:1054D000012000E0002070BD10B50022002340F63E
:1054E0006A14A14200D100BF0A1201249440A3B261
:1054F000DC43048010BD000000380140004400403F
:1055000000480040004C00400050004010B50446E8
:10551000FE48844208D10121C014FFF7A9FD0021F3
:10552000E014FFF7A5FDC4E0B4F1804F08D10121DC
:105530000846FFF7AAFD00210120FFF7A6FDB8E00D
:10554000F348844208D101210220FFF79EFD00218B
:105550000220FFF79AFDACE0EE48844208D1012119
:105560000420FFF792FD00210420FFF78EFDA0E04C
:10557000E948844208D101210820FFF786FD002177
:105580000820FFF782FD94E0E448844208D101211D
:105590001020FFF77AFD00211020FFF776FD88E04C
:1055A000DF48844208D101212020FFF76EFD002151
:1055B0002020FFF76AFD7CE0DA48844208D101210F
:1055C0004014FFF755FD00216014FFF751FD70E016
:1055D000D548844209D10121C804FFF749FD0021C3
:1055E0004FF40020FFF744FD63E0D048844209D126
:1055F00001210805FFF73CFD00214FF48010FFF763
:1056000037FD56E0CA48844209D101214805FFF719
:105610002FFD00214FF40010FFF72AFD49E0C54897
:10562000844208D101214020FFF72FFD00214020B6
:10563000FFF72BFD3DE0C048844208D101218020C6
:10564000FFF723FD00218020FFF71FFD31E0BB485D
:10565000844208D101218015FFF717FD0021A01514
:10566000FFF713FD25E0B648844209D10121080463
:10567000FFF7FEFC00214FF48030FFF7F9FC18E043
:10568000B048844209D101214804FFF7F1FC002110
:105690004FF40030FFF7ECFC0BE0AB48844208D13C
:1056A00001218804FFF7E4FC00214FF48020FFF77C
:1056B000DFFC10BD00220288944B98420ED0994B1B
:1056C00098420BD0B0F1804F08D0914B984205D052
:1056D000904B984202D0904B984204D14FF68F7372
:1056E0001A404B881A438D4B984207D08C4B9842F6
:1056F00004D04FF6FF431A40CB881A4302808B88B0
:1057000083850B880385814B98420BD0854B98424B
:1057100008D08B4B984205D08A4B984202D08A4BD6
:10572000984201D10B7A038601238382704770B5BA
:10573000002400220023058C4FF6FE7635400584B8
:10574000028C8388048B4FF68F752C40B51E2C403D
:105750000D882C43751E2A400D892A434D882A4303
:105760006A4DA8420BD06F4DA84208D0744DA84294
:1057700005D0744DA84202D0734DA84213D14FF604
:10578000F7752A404D892A434FF6FB752A408D88CC
:105790002A434FF6FF652B404FF6FF552B408D896E
:1057A0002B43CD892B4383800483CD888586028457
:1057B00070BD70B5002400220023058C4FF6EF76F3
:1057C00035400584028C8388048B48F6FF752C4095
:1057D0004FF6FF452C400D884FF6FF7606EA05256B
:1057E0002C434FF6DF752A400D8906EA05152A433A
:1057F0004D8806EA05152A43444DA84202D0494D7A
:10580000A8421DD14FF67F752A404D894FF6FF768D
:1058100006EA05152A434FF6BF752A408D8806EA29
:1058200005152A434FF6FF352B404FF2FF752B40ED
:105830008D8906EA85052B43CD8906EA85052B432C
:1058400083800483CD880587028470BD70B50024F1
:1058500000220023058C4FF6FF6635400584028C3C
:105860008388848B4FF68F752C404FF6FC752C4047
:105870000D882C434FF6FF552A400D894FF6FF76D1
:1058800006EA05252A434D8806EA05252A431F4DC9
:10589000A84202D0234DA8421DD14FF2FF752A40E5
:1058A0004D894FF6FF7606EA05252A434FF6FF3568
:1058B0002A408D8806EA05252A434EF6FF752B40BF
:1058C0004DF6FF752B408D8906EA05152B43CD89D2
:1058D00006EA05152B4383808483CD88858702845F
:1058E00070BD70B5002200230024058C4EF6FF76B3
:1058F00035400584038C8488828B48F6FF752A40E6
:105900004FF6FF452A400D8820E00000002C0140A2
:105910000004004000080040000C0040001000405F
:105920000014004000340140004C01400050014090
:105930000054014000180040001C004000200040BE
:105940000040014000440140004801404FF6FF760E
:1059500006EA05252A434DF6FF752B400D8906EA18
:1059600005352B434D8806EA05352B43FA4DA842F1
:1059700002D0FA4DA84208D14BF6FF752C408D8914
:105980004FF6FF7606EA85152C4384808283CD8806
:10599000A0F84050038470BD828B4FF2FF331A4051
:1059A0008283828B4FF6FF7303EA01231A438283BB
:1059B0007047F0B50C461546002200210026078CE2
:1059C0004EF6FF7C07EA0C070784828B018C4FF6AA
:1059D000FF7707EA043640F6FF473A404FF6FF7775
:1059E00007EA05273A434FF6FF7707EA03373A43BA
:1059F000D94FB8420ED0D94FB8420BD0B0F1804F3A
:105A000008D0D74FB84205D0D64FB84202D0D64FB3
:105A1000B84206D14DF6FF77394046F480573943F6
:105A200005E047F6FF57394044F4805739438283F5
:105A30000184F0BD828B4FF6F3731A408283828B10
:105A40000A4382837047F0B50C46154600220021B8
:105A50000026078C4FF6FF6C07EA0C070784828B41
:105A6000018C4FF6FF7707EA04264FF60C773A4091
:105A70004FF6FF7707EA03172F433A43B64FB84272
:105A80000ED0B64FB8420BD0B0F1804F08D0B44F13
:105A9000B84205D0B34FB84202D0B34FB84206D196
:105AA0004FF6FF57394046F48077394305E04FF20F
:105AB000FF57394044F48077394382830184F0BD35
:105AC000028B4FF2FF331A400283028B4FF6FF73B3
:105AD00003EA01231A4302837047F0B50C461546CA
